:10000000F8FF002011040000B72C0000B72C0000FE
:10001000B72C0000B72C0000B72C0000B72C000054
:10002000B72C0000B72C0000B72C0000B72C000044
:10003000B72C0000B72C0000B72C0000B72C000034
:10004000B72C0000B72C0000B72C0000B72C000024
:10040000FFFFFFFFFFFFFFFFFFFFFFFFFEFFFFFFFD
:1004100062B602F0DFFFFEE72DE9F0439FB00FF672
:10042000C036269CDFF81C898DF83B4002910024E1
:100430000B944FF0FF37044691461D460AE019F829
:10044000011B0298A0470028029000F0A1800B98A1
:10045000401C0B9099F8000050B12528EFD10021E5
:100460000022059106920791089209910A9203E0F1
:100470000B98A0E041F0010119F8010F2028F9D0F4
:1004800023280CD02B2804D02D2805D0302809D0C3
:1004900080E041F00201EFE741F00401ECE741F0B8
:1004A0000801E9E741F01001E6E70D920AE00D9836
:1004B000404505DA00EB800002EB4002303A0D9235
:1004C00009F1010999F80020A2F130000A28EED3C1
:1004D00099F800002E2818BF0C9726D119F8010FA3
:1004E0002A2808D12868286009F1010950F8042B4E
:1004F00028600C9219E02D280CBF09F10109002099
:1005000000220C920BE040B90C9A424505DA02EB4E
:10051000820203EB4203303B0C9309F1010999F885
:100520000030A3F130020A2AEDD3ADF8381030467E
:1005300099F8001000F0A4FD08B119F8010B8DF82E
:100540003A009DF83A00682805D199F8000068281B
:100550000CD1622106E06C2804BF99F800006C28D9
:1005600004D171218DF83A1009F1010910A8049005
:100570002A4619F8013B6946204600F05CF838B974
:1005800010AA6946204600F088F900287FF562AF7E
:10059000384610E02A2888D12A682A6052F8040BCD
:1005A0002A6000280D9003D540420D9041F00401CF
:1005B00009F101098CE71FB0BDE8F083622820D063
:1005C000682811D06A2803D06C2827D0712825D13B
:1005D0000868C01D20F007000860D0E9002308303B
:1005E0000860194610467047002A0A680A601068B9
:1005F00003D0121D0A6000B217E0121D0A6080B21B
:1006000017E0002A0A680A60106803D0121D0A6009
:1006100040B20AE0121D0A60C0B20AE0002A0A686D
:100620000A60106803D0121D0A60C1177047121DBE
:100630000A600021704770B51C460D46B4F12500D4
:100640002E69114600F017812038022865D9133829
:1006500041D00B3816D0401E1ED0401E02285CD957
:10066000001F19D0401F00F08380401E33D0401E71
:1006700000F0CD80C01E00F0DC80801E2BD0C01E9C
:1006800029D0FEE06869421C6A610A680A6052F873
:10069000043B0A603354FEE095F83A000122FFF76C
:1006A0008DFFC5E900010023994204DA6869411C05
:1006B00069612D220DE0288F810704D56869411CEE
:1006C00069612B2205E0C00722D56869411C696178
:1006D000202232541CE095F83A000022FFF76EFF0A
:1006E000C5E9000195F83800010711D5D5E90023C7
:1006F0000020834208BF82420AD044F020007828BC
:1007000006D1686930213154401C421C6A6134545E
:10071000214668693044E86087E00868C01D20F021
:1007200007000860D0E9002308300860C5E900230D
:10073000D5E90001C80F04D06869411C69612D2208
:100740000DE0288F810704D56869411C69612B225F
:1007500005E0C00704D56869411C69612022325454
:1007600068693044E8602146284600F0C8F992E004
:1007700005F13A02507820B14FF0FF340FF66800CF
:1007800062E01078622808D0682824D06A2812D045
:100790006C282ED071280ED02BE00A680A6052F81F
:1007A000040B0A6020B94FF0FF340FF654004BE001
:1007B000E96A01706FE00A680A6052F8040B0A6087
:1007C00020B94FF0FF340FF638003DE0EA6AD31746
:1007D000C0E900235FE00A680A6052F8040B0A606F
:1007E00020B94FF0FF340FF618002DE0E96A0180C0
:1007F00051E00A680A6052F8040B0A6020B94FF011
:10080000FF340FF2FC701FE0E96A016043E00A6800
:100810000A6052F8040B0A60002120F0000221F067
:10082000FF33C5E90023EE607821284600F0BBF8CD
:1008300031E00868086050F8044B0860EC603CB98F
:100840004FF0FF340FF2D07000F026FC201A70BD7C
:100850002E6B002E04D5204600F03EFC044608E036
:1008600032460021204600F053FC002814BF041B30
:100870003446AC610FE06869411C6961252232543D
:1008800009E06969481C686125227254210002D080
:10089000431C6B613454002070BD2DE9FC410F46B0
:1008A000064690467A6B7869396ABC6A121AB8694A
:1008B000521A796A121AF869521A121A97F83800FD
:1008C000141B41070FD42020002C8DF800000ADDF6
:1008D000254601236A463946304600F069FB002868
:1008E0005DD16D1EF5D17B6942463946304600F038
:1008F0005FFB002853D130208DF800003D6A002DA9
:1009000009DD01236A463946304600F051FB0028D4
:1009100045D16D1EF5D1BB69FA683946304600F005
:1009200047FB00283BD130208DF800007D6A002D68
:1009300008DD01236A463946304600F039FB70BBBA
:100940006D1EF6D1F868B969FB6942183946304620
:1009500000F02EFB18BB30208DF80000BD6A002D82
:1009600008DD01236A463946304600F021FBB0B964
:100970006D1EF6D197F8380041070DD52020002CC8
:100980008DF8000008DD01236A463946304600F044
:100990000FFB20B9641EF6D10020BDE8F6814FF0B0
:1009A000FF30BDE8F6812DE9FC4707468C463E69DD
:1009B000BCF16F0F08BF082405D04CF02000782848
:1009C00014BF0A2410243C25D7E90023BCF1640F8E
:1009D00018BFBCF1690F9046994606D100218B42A1
:1009E00003DAD8F1000869EB49094FF0000AD14554
:1009F00008BFD0451FD1386BE8B9082C4BD197F808
:100A00003800010747D530203B2586F83B0042E0FF
:100A100000280ED597F8380000F01400102808D1EF
:100A20007B6B7969386A5B1A1B1A9A1A002AC8BF4D
:100A30003A62BDE8F3878DF800C040464946224639
:100A4000E31700F091FB3032D0B26D1E3A280195C9
:100A500004DB9DF80000A0F151018A187255404650
:100A600049462246E31700F07FFB89468046D14580
:100A700008BFD04503D0F86871198842DDD3082C2F
:100A800009D197F83800010705D5705D302802D0EC
:100A90006D1E30207055C5F13C02BA617119F960C4
:100AA000386B8242B4DA821A3A624FF6EF70398FAD
:100AB00001403987BDE8F3872DE9D04306460F464C
:100AC00014464FF00008DFF8809212E0E00707D5E7
:100AD00042464B463046394600F05EFC06460F461D
:100AE0004046494642464B4600F056FC641080465C
:100AF0008946002CEAD130463946BDE8D0832DE93D
:100B0000F84F05468CB0286BD5E9008900288B4644
:100B100002AC02D50620286305E001BF4BF020009F
:100B2000672801212963D5E900A670004015401C03
:100B30000DD131030BD0ABF1610103201A29A8615B
:100B400002D20FF2F04110E00FF2EC410DE0710023
:100B50004915491C0ED130030CD1ABF161010320C2
:100B60001A29A86116D30FF2D841E868032200F0D1
:100B7000E5FCE3E026F00043B3F5801F2AF0000215
:100B800011D20027BB4208BFBA42019705D1504697
:100B9000314618E00FF2A441E7E701AA504631467A
:100BA00000F020FD08E06948694900EB135001900E
:100BB0000E40684950463143019B674F47F29752B8
:100BC000534393FBF7F7C5E90001D5E9000620F090
:100BD000000226F000430020834204BF824200232B
:100BE00000F0A480404649460022002300F032FD78
:100BF00038BF89F000493A46D2F10702019703DD78
:100C00004946FFF759FF0AE0524200205349FFF7D7
:100C100053FF02460B464046494600F033FD8046EE
:100C20004BF02006662E286B06BF019C0A34062472
:100C30002418142CC8BF1424302089468DF80800CD
:100C40000DF10907002C33DD4046494600F03EFE19
:100C500001460A4607F1080304200A27B2FBF7F70A
:100C600007EB870EA2EB4E02303203F8012C0A226A
:100C7000B7FBF2F202EB820EA7EB4E073037401EB5
:100C800003F8027DE9D1083C002C03F10807D9DD07
:100C9000084600F02FFE02460B464046494600F04B
:100CA00037FE00222E4B00F077FB80468946CBE7CB
:100CB0000DF109003F1A0DF1090404E00198401EEE
:100CC0007F1E0190641C20783028F7D0662E02D158
:100CD0000198401C03E0652E0CBF012000202B6B07
:100CE000C3189F42B8BF7B1E002B1ED4BB4204DA40
:100CF000E05C3528A8BF392000DA30201946621E92
:100D000002EB010800E05B1E18F80199491E8145BD
:100D1000F9D0392802D1605C401C6054002904D508
:100D20000198401C14465B1C0190019800B2009091
:100D30001BB222465946284600F014F80DB0BDE813
:100D4000F08F0000CBCCCC0C0000244002FCFFFF55
:100D5000FFFF0F800000E03FA08601000000F03F91
:100D600084D797412DE9F84783B005468A469146D6
:100D7000984600F03FFEB8F1000F406A2F6B0678EE
:100D800003DC4FF001080FF2BC294AF02000BDF946
:100D90003040662808BF641C13D0672840F08F805D
:100DA00014F1040F7ADBBC4278DA95F83800641C41
:100DB000010702D4B845B8BF474620B23F1A48BF22
:100DC00000270FFA84FAE868A969BAF1000F23DC5A
:100DD0004A1C30234354002F03DC95F838000107E8
:100DE00002D5E8688654521C17EB0A0FB8BF7C4244
:100DF00024B2E71960424745B8BFB846AA616862A5
:100E00000FFA88F4EC61E868AB6922464946184459
:100E100000F094FB3F1B18E022B29045084416DA1C
:100E20004246494600F08AFBA8694044A861AAEB03
:100E30000801002F696203DC95F838100A0704D511
:100E4000E9680E54E869401CE861AF6299E04946E0
:100E500000F074FBA869002F5044A8EB040803DCE1
:100E600095F838100A0702D5E9680E54401CA861AD
:100E70000FFA88F08742EB68A869B8BFB8460FFA46
:100E800088F209EB0A01184400F058FBA9690FFA2F
:100E900088F00144A961381A686272E0B84504DA42
:100EA00095F838100A0758BF47467F1E48BF0027ED
:100EB000BAF1670F0CBF4FF0650A4FF0450AA969F8
:100EC000EB68481CA861002F19F8012B5A5403DC69
:100ED00095F838100A0719D5E968431CAB610E5420
:100EE000002F13DDA8F1010630B28742D5F80CC0FF
:100EF000B8BF3E4632B249460CEB030000F01EFB81
:100F0000A86936B23018BF1BA8616F62E868A9698A
:100F10000844002C80F800A003D42B224270811CCE
:100F200003E02D2141706442811C00206A460AE0E2
:100F300023460A2493FBF4F404EB8406A3EB460354
:100F400002F8013B401C24B2002CF1DC012806DC35
:100F50004AF02002652A04BF302201F8012B48B96B
:100F6000302001F8010B07E0401E1DF8003030333F
:100F700001F8013B0028F7DCEA68A8691044091A67
:100F8000E96195F8380000F0140010280DD16A6965
:100F9000A969686A8A18E9698218A86A8A18821891
:100FA000686B8242BCBF821A2A6204B0BDE8F08737
:100FB000F8B505460E4617461C46002074B117F8D2
:100FC000011BB068A847B06030B1F06A401CF06205
:100FD0000020641EF3D1F2BD4FF0FF30F2BD0000DF
:100FE000686A6C747A4C00007072696E74665F7324
:100FF0003A20256E20646973616C6C6F77656400BC
:101000007072696E74663A2062616420256E206198
:101010007267756D656E74007072696E74665F7369
:101020003A2062616420257320617267756D656E78
:10103000740000006E616E004E414E00696E6600E5
:10104000494E4600300030B4002513E050F8042B20
:10105000D30744BFA9F101039A18091F042942F8D4
:10106000045BFAD213468C0744BF15809B1CC9074A
:1010700048BF1D7050F8041B0029E7D130BC7047F1
:101080000278C9B28A421AB11CBF10F8012FF9E7E1
:1010900018BF00207047000080B500B906A00549C0
:1010A0000B681BB122220021984701E000F0A6FC4A
:1010B000222002BD0C0EFF1F636F6E737472616994
:1010C0006E742068616E646C65723A20626164209F
:1010D0006D6573736167650000F10103810704D0DA
:1010E00010F8011B820781B1FAD10268A2F1013127
:1010F000914311F0803104BF50F8042FF6E709BA8C
:10110000B1FA81F100EBD100401CC01A7047000019
:10111000C9B2830706D0521E22D310F8013B994270
:10112000F7D11FE0083A13D302F1040241EA01218A
:1011300041EA014150F8043B121F21BF4B40A3F18B
:10114000013C2CEA030C1CF0803FF3D0C9B2001F15
:10115000083210F8013B521E28BF91EA030FF8D85D
:1011600018BF0120401E7047BBBBE1B1B2F5803F04
:1011700080F07E80022A1ED98C46B1FBF2F102FB80
:1011800011C31B0443EA1043B3FBF2FC02FB1C3304
:1011900080B240EA0343B3FBF2F002FB103240EAB4
:1011A0000C4000237047022A05D98446B0FBF2F0B8
:1011B00002FB10C270474AB105D100F00102490894
:1011C0005FEA3000704700220023704700F01ABC2D
:1011D0000B000200002100207047904271EB030CCD
:1011E000F6D3B3F5803F2FD2F0B5B3FA83F7B1FA57
:1011F00081F4A7F10F0E3D1B5340CEF1200602FAF9
:101200000EF2F3415340B5F10F0746D80F3C2C4482
:101210004140C4F12006A040F1414140B1FBF3F64A
:1012200003FB1611A2FB0645001BA94102D2761E44
:101230008018594180EA010221FA0EF362FA0EF297
:1012400000215A403046F0BD30B4B1FBF3FC03FB43
:101250001C11A2FB0C45001BA94103D2ACF1010CEF
:101260008018594130BC02460B4660460021704749
:10127000B2F1807F65D3F0B5B2FA82F7B1FA81F4AA
:10128000C7F10F063D1B22FA06F307F1110EF241DA
:1012900020355A40B5F10F07B8D94140C4F12006B6
:1012A000A040F1414140B1FBF3FC03FB1C11A2FB48
:1012B0000C45001BA94103D2BCF1010C8018594117
:1012C0000F2F12D30F3FC90341EA5041B1FBF3F690
:1012D00003FB1611A2FB0645D4EBC030A94102D294
:1012E000761E8018594146EACC3C07B34140C7F10D
:1012F0002006B840F1414140B1FBF3F603FB161163
:10130000A2FB0645001BA94102D2761E8018594156
:1013100080EA010221FA0EF3C7F1200462FA0EF20C
:101320000CFA07F05A402CFA04F13043F0BD80EA81
:10133000010221FA0EF3002162FA0EF260465A40D1
:10134000F0BD8C46B1FBF2F102FB11C31B0243EA74
:101350001063B3FBF2FC02FB1C331B024CEA0020BF
:1013600043EA1063B3FBF2FC02FB1C331B024CEAA2
:10137000002043EA1063B3FBF2FC02FB1C331B02A8
:101380004CEA002043EA1063B3FBF2FC02FB1C3280
:101390004CEA002000237047B0B581EA030C0CF042
:1013A000004C40F2FF7515EA11541DBF15EA1357A2
:1013B000AC42AF4239E0E41923EA455343F48013C9
:1013C000C90241F0004141EA505EC7021100A7FB8B
:1013D000020200284FF00000EEFB01204FF0000158
:1013E000E3FB072118BF42F00102401800214941E8
:1013F000E3FB0E01A4F580640F0302D252004041CA
:10140000494154F101046CDD470872F1004250F18A
:10141000000051EB0451A1F580115CBF41EA0C01C1
:10142000B0BD4CEA05510020B0BD05EA1357AC42EF
:1014300014BFAF4241E050EA410E1CBF52EA430ED6
:1014400002E061460020B0BD24423C441BD15FEA6B
:10145000070EF6D0090302BF01460020AEF1140EBC
:10146000B1FA81F7AEEB070401FA07FE0C37C7F1BA
:10147000200100FA07F7C8404EEA000E23EA455360
:1014800043F48013A2E733F00043B3FA83F704BFB9
:10149000B2FA82FE77440B3FE41BB7F1200E2FBF58
:1014A00002FA0EF3BB40C7F1200E22FA0EFE38BF3F
:1014B00043EA0E03BA40641C82E750EA410E14BFAF
:1014C00052EA430E6FF000014FF4001717EB430F81
:1014D0008ABF194617EB410FB5E74CEA05510020CA
:1014E000B0BDD4F10104B4F120070FDAC4F1200734
:1014F000520828BF42F0010210FA07F501FA07F777
:10150000E1BF2A43E0403843E1400FE0352C98DC4E
:10151000C7F1200452EA400220FA07F218BF42F055
:10152000010231FA07F0A1400A43002172F10042A2
:1015300050F1000051EB0C01B0BD000062B38B070D
:1015400008D0521E11F8013B00F8013B00F0248046
:101550008B07F6D1830740F0208000BF103A07D3F5
:1015600030B4B1E83810103AA0E83810F9D230BCE5
:10157000530724BFB1E80810A0E8081044BF51F891
:10158000043B40F8043BD20724BF31F8022B20F87B
:10159000022B44BF0B7803707047121F17D35B00F8
:1015A00009D151F8043B20F8023B1B0C121F20F814
:1015B000023BF6D20BE051F8043B00F8013B1B0A5A
:1015C00020F8023B1B0C121F00F8013BF3D238BF7E
:1015D000121D521E24BF11F8013B00F8013BF8D840
:1015E0007047000010B5144600F002F8226010BDEC
:1015F000C1F30A5343B14A0012F5001F28D2A3F2E7
:10160000FE32A1EB0251704750EA410C20D001F0AC
:10161000004C31EA0C01B1FA81F204BFB0FA80F358
:10162000D2180B3AB2F120032CBF00FA03F191401B
:1016300041EA0C013EBFC2F1200C20FA0CF3194321
:101640009040524240F2FD33D21A01EB03517047F1
:10165000002270474FF4001C1CEB410F94BF1CEBA1
:10166000430F09E041EA030C50EA4C0C52EA0C0C1F
:1016700003D2994208BF9042704714BF8B42824206
:1016800070470000F0B540F2FF7581EA030C0CF0E2
:10169000004C15EA11541DBF15EA1357AC42AF4276
:1016A000E5E0BC41C1F31301C3F31303801A994170
:1016B00043F4801304D2641E40004941801859410C
:1016C000C90241EA5051B1FBF3F603FB1611A2FB2C
:1016D0000675D7EBC020A94102D2761E8018594169
:1016E000C90241EA5051B1FBF3FE03FB1E11A2FBFC
:1016F0000E75D7EBC020A94103D2AEF1010E8018C0
:101700005941890241EA9051760546EA8E2EB1FB95
:10171000F3F603FB1611A2FB0675D7EB8020A94157
:1017200002D2761E80185941C90241EA50514EEA50
:10173000060EB1FBF3F603FB1611A2FB0675D7EB01
:10174000C020A94102D2761E80185941C90241EA3F
:101750005051B1FBF3F703FB1711A2FB0735D3EB95
:10176000C020A94167F100070CBF004247F0010704
:1017700066F3D5274FEA1E31B80814F5806412DDF0
:10178000BD0775F1004250EB0E5051EB045111F5BD
:10179000801F5CBF41EA0C01F0BD4CF07F6141F05D
:1017A000E0410020F0BDBD076D0840EA0E5041F455
:1017B0008011D4F10104B4F120060ADAC4F1200644
:1017C0000200E04001FA06F3E1401843B24015433D
:1017D0000EE0342C13DCC6F1200445EA40056D0808
:1017E00020FA06F2154321FA06F0A1400D4300212C
:1017F00075F1004250F1000051EB0C01F0BD0020EA
:101800005FEA0C01F0BDCFB992185B41B3FA83F7E0
:1018100004BFB2FA82F6BF190B3FB7F120062FBF03
:1018200002FA06F3BB40C7F1200622FA06F638BFDB
:101830003343BA401CB1E419641E33E77F4231F0F0
:101840000041B1FA81F404BFB0FA80F6A4190B3C50
:10185000B4F120062FBF00FA06F1A140C4F1200622
:1018600020FA06F638BF3143A0403C1B1AE7AC42D1
:101870001ABF05EA1357AF4212E050EA41061CBFF7
:1018800052EA4306BFE750EA4107304661461CBFB3
:1018900041EA0551F0BD52EA430C08BFC143F0BD17
:1018A00000204FF4001616EB410F98BF16EB430FC4
:1018B00008BF16EB410F24BFC14305E016EB430FF1
:1018C0000CBF61464CEA0551F0BD0000400D4918BF
:1018D00040EA81200CD2490DA1F58061491C40F0FD
:1018E000004005DBD1F11F0154BFC840C01770474D
:1018F00000207047014648B1B0FA80F18840C91C09
:10190000C1F58461090501EBD02140057047000055
:1019100070B44FF0004591EA030F40F175806B40C1
:10192000841A71EB030603D2001BB14112197341F3
:101930004FF4001C1CEB410F34BF7CEB430442E02E
:101940000C0DA4EB1356352E4FDC45EAC323DB0AFE
:1019500045EAC121C912B6F120050DDD63FA05F68D
:10196000EB4086EA0305124218BF45F00105C01896
:1019700051F100010CD213E062FA06F5F240554035
:10198000F3415A40B340F3405A408018594107D3BD
:1019900049085FEA30005FEA350528BF45F00105D8
:1019A00001F58011420875F1004250F1000041EB51
:1019B00004514E0016F5001F70BC38BF7047002060
:1019C000090D090570471CEB410F10D252EA43067E
:1019D0000BD0BCEB410F05D80C0DAB43661E342E6B
:1019E000B6DD02E0AB438018594170BC704770BC53
:1019F0007047000000487047B80BFF1F012000F03F
:101A0000B9B8000070470000841A71EB030604D2D5
:101A10006E40001BB141121973414FF4001C1CEBC6
:101A2000410F34BF7CEB430683E00C0DA4EB13564F
:101A3000362E00F37C80012E45EAC32341DC43EAC5
:101A4000525312BFD20292025B08240545EAC1211B
:101A500041EA5051D2EBC020994125D407D1B0FAC8
:101A600080F610FA06F162D00020203608E0B1FAC4
:101A700081F6B140C6F1200220FA02F21143B040D3
:101A80004FEAF474B4EB465434F001064FEA7404A0
:101A90000AD8D6F50016760D04F00044F04061FA3D
:101AA00006F25040F1404840C00A40EA415021F05F
:101AB000004128BF5FEA500550F1000044EBD121FE
:101AC00035E0DB0A45EAC121C90AB6F120050EDD81
:101AD00042EA0242120CC5F1200603FA06F6EB4078
:101AE00042EA06056D42984161F100010DE062FA9B
:101AF00006F5F240554063FA06FC82EA0C02F34018
:101B00005A406D42904161EB030111F4801F05D1F1
:101B1000641E620502D06D004041494121F48011EC
:101B2000430875F1004350F1000041EB045170BCD3
:101B300070471CEB410F15D223F0004352EA4306D5
:101B40000BD04FEA4C0CBCEB410F04D80C0D661EB9
:101B5000342EB7DDEBE7801A994150EA410608BF01
:101B60000021E4E708BF1CEB430F28BF6FF0000122
:101B7000DDE700002021090326311820ABBEF9E77C
:101B80000000000000000000000000000000000055
:101B900000000000000000000000000000004E6F88
:101BA0006E4D61736B61626C65000000004861728C
:101BB000644661756C740000000000004D656D4D59
:101BC000616E6167656D656E740000427573466194
:101BD000756C740000000000000055736167654675
:101BE00061756C740000000000000000000000003F
:101BF00000000000000000000000000000000000E5
:101C000000000000000000000000000000000000D4
:101C100000000000000000000000000000000000C4
:101C20000000000000535643616C6C00000000008F
:101C30000000000044656275674D6F6E69746F72D5
:101C40000000000000000000000000000000000094
:101C5000000050656E645356000000000000000054
:101C6000005379735469636B0000000000000000AA
:101C7000444D41300000000000000000000000441E
:101C80004D41310000000000000000000000444D04
:101C900041320000000000000000000000444D41FF
:101CA000330000000000000000000000444D4134FB
:101CB0000000000000000000000000444D4135001D
:101CC00000000000000000000000444D413600000C
:101CD000000000000000000000444D4137000000FB
:101CE0000000000000000000444D413800000000EA
:101CF00000000000000000444D41390000000000D9
:101D0000000000000000444D4131300000000000A0
:101D10000000000000444D4131310000000000008F
:101D200000000000444D413132000000000000007E
:101D3000000000444D41313300000000000000006D
:101D40000000444D4131340000000000000000005C
:101D500000444D413135000000000000000000004B
:101D6000444D415F4572726F720000000000004DEB
:101D7000434D000000000000000000000000465439
:101D8000464C0000000000000000000000526561A9
:101D9000645F436F6C6C6973696F6E004C56445F8F
:101DA0004C565700000000000000004C4C5700004B
:101DB00000000000000000000000576174636864C8
:101DC0006F6700000000000000524E470000000056
:101DD0000000000000000000493243300000000015
:101DE0000000000000000049324331000000000004
:101DF00000000000000053504930000000000000C7
:101E000000000000005350493100000000000000B5
:101E100000000000535049320000000000000000A4
:101E200000000043414E305F4F525F4D425F62758C
:101E3000660043414E305F4275735F4F6666000037
:101E40000043414E305F4572726F72000000000027
:101E500043414E305F54785F5761726E696E6743DD
:101E6000414E305F52785F5761726E696E674341D1
:101E70004E305F57616B655F5570000000526573AF
:101E80006572766564353100000000005265736547
:101E9000727665643532000000000043414E315FC8
:101EA0004F525F4D425F6275660043414E315F4263
:101EB00075735F4F666600000043414E315F4572A7
:101EC000726F72000000000043414E315F54785F32
:101ED0005761726E696E6743414E315F52785F574A
:101EE00061726E696E6743414E315F57616B655F2A
:101EF000557000000052657365727665643539006F
:101F0000000000005265736572766564363000002B
:101F100000000055415254305F52585F5458000041
:101F2000000055415254305F4552520000000000FD
:101F30000055415254315F52585F54580000000020
:101F400055415254315F4552520000000000005587
:101F5000415254325F52585F5458000000005541BE
:101F60005254325F45525200000000000055415269
:101F700054335F52585F545800000000554152548A
:101F8000335F455252000000000000554152543466
:101F90005F52585F54580000000055415254345F5E
:101FA00045525200000000000055415254355F5226
:101FB000585F54580000000055415254355F455257
:101FC00052000000000000414443300000000000C7
:101FD0000000000000004144433100000000000008
:101FE0000000000000434D503000000000000000E1
:101FF00000000000434D50310000000000000000D0
:10200000000000434D5032000000000000000000BE
:10201000000046544D3000000000000000000000A9
:102020000046544D31000000000000000000000098
:1020300046544D3200000000000000000000004344
:102040004D54000000000000000000000000525449
:102050004300000000000000000000000052657313
:1020600065727665643833000000000050495430D2
:102070000000000000000000000000504954310042
:102080000000000000000000000050495432000031
:102090000000000000000000005049543300000020
:1020A000000000000000000050444230000000002A
:1020B0000000000000000055534230000000000006
:1020C000000000000000555342444344000000005B
:1020D0000000000000454E45545F313538385F54EC
:1020E000696D6572454E45545F5472616E736D69DA
:1020F000740000454E45545F52656365697665001E
:102100000000454E45545F4572726F72000000003A
:1021100000493253300000000000000000000000C1
:102120005344484300000000000000000000004449
:102130004143300000000000000000000000444166
:10214000433100000000000000000000005453492B
:102150003000000000000000000000004D43470078
:1021600000000000000000000000004C5054696DA9
:102170006572000000000000000052657365727611
:10218000656431303200000000504F52544100006D
:102190000000000000000000504F525442000000B8
:1021A00000000000000000504F52544300000000A7
:1021B000000000000000504F525444000000000096
:1021C0000000000000504F52544500000000000085
:1021D0000000000052657365727665643130380026
:1021E0000000005265736572766564313039000015
:1021F000000052657365727665643131300000000D
:1022000000526573657276656431313100000000FB
:102210005265736572766564313132000000005298
:102220006573657276656431313300000000526574
:102230007365727665643131340000000052657355
:102240006572766564313135000000005265736552
:102250007276656431313600000000526573657234
:10226000766564313137000000005265736572761F
:10227000656431313800000000526573657276651F
:1022800064313139000000000080034000900340B9
:1022900000800B4000F00F4040F00F4080F00F40F6
:1022A000C0F00F4000F10F40F0000A1D3000180090
:1022B00032001801600018186400181A6E00181F08
:1022C000780013187D00131A8200131C8C000E1264
:1022D00096000E15A0000E18AA000E1BB4000E1ECC
:1022E000C8000C1CE1000B1EFA000A1F00010908BF
:1022F0000090044000A0044000B0044000C004402E
:1023000000D0044000A0064000B0064000C00640D7
:1023100000D0064000A00E4000B00E406A6E6B6C0C
:10232000676D4E4F34353637903D0000903D0000CC
:10233000903D0000903D0000903D0000903D000069
:10234000903D0000FFFFFFFFFFFFFFFF923D0000F9
:10235000903D0000903D0000FFFFFFFFFFFF0000E9
:1023600002040101100EFF1F600EFF1F100EFF1F61
:10237000100EFF1F00000000100EFF1F00000000E5
:10238000340CFF1F200CFF1F0000000000000000A5
:10239000000000000000000000000000000000003D
:1023A0000000000000000000DFF800F0AD0DFF1F8E
:1023B00010B4DFF89413020052B231F82210020078
:1023C00052B2012AC0F27281020052B2112A80F286
:1023D0006D81DFF87823002313700B009BB25B2B19
:1023E00002DA002353707DE00B009BB2B52B02DABA
:1023F0000123537076E00B009BB240F20F14A3420E
:1024000002DA022353706DE00B009BB240F26914B4
:10241000A34202DA0323537064E00B009BB240F244
:10242000C314A34202DA042353705BE00B009BB297
:1024300040F21D24A34202DA0523537052E00B0040
:102440009BB240F27724A34202DA0623537049E09C
:102450000B009BB240F2D124A34202DA072353704F
:1024600040E00B009BB240F22B34A34202DA082377
:10247000537037E00B009BB240F28534A34202DA7E
:10248000092353702EE00B009BB240F2DF34A342CD
:1024900002DA0A23537025E00B009BB240F2394464
:1024A000A34202DA0B2353701CE00B009BB240F2F4
:1024B0009344A34202DA0C23537013E00B009BB247
:1024C00040F2ED44A34202DA0D2353700AE00B0000
:1024D0009BB240F24754A34202DA0E23537001E04C
:1024E0000F2353700B009BB21A2B02DA0023937058
:1024F0006AE00B009BB2332B02DA0123937063E096
:102500000B009BB24C2B02DA022393705CE00B00B1
:102510009BB2652B02DA0323937055E00B009BB24C
:102520007E2B02DA042393704EE00B009BB2972BB4
:1025300002DA0523937047E00B009BB2B02B02DA5E
:102540000623937040E00B009BB2C92B02DA0723ED
:10255000937039E00B009BB2E22B02DA08239370F0
:1025600032E00B009BB2FB2B02DA092393702BE0C5
:102570000B009BB2B3F58A7F02DA0A23937023E043
:102580000B009BB240F22D14A34202DA0B2393708E
:102590001AE00B009BB2B3F5A37F02DA0C23937011
:1025A00012E00B009BB240F25F14A34202DA0D234B
:1025B000937009E00B009BB2B3F5BC7F02DA0E23E7
:1025C000937001E00F2393700B009BB21A2B02DA79
:1025D0000023D3706AE00B009BB2332B02DA012395
:1025E000D37063E00B009BB24C2B02DA0223D37052
:1025F0005CE00B009BB2652B02DA0323D37055E03D
:102600000B009BB27E2B02DA0423D3704EE00B004A
:102610009BB2972B02DA0523D37047E00B009BB2E5
:10262000B02B02DA0623D37040E00B009BB2C92B1B
:1026300002DA0723D37039E00B009BB2E22B02DAF7
:102640000823D37032E00B009BB2FB2B02DA092384
:10265000D3702BE00B009BB2B3F58A7F02DA0A231A
:10266000D37023E00B009BB240F22D14A34202DA98
:102670000B23D3701AE00B009BB2B3F5A37F02DAF1
:102680000C23D37012E00B009BB240F25F14A34204
:1026900002DA0D23D37009E00B009BB2B3F5BC7FC7
:1026A00002DA0E23D37001E00F23D37010BC704701
:1026B00070B50400200040B2FFF77AFE244801788C
:1026C00011F0FD010170017851F010010170214DF0
:1026D000B8202870204E3078C006FBD43078C0F384
:1026E00081000228FAD11948C378827841780078AD
:1026F000FFF75AFE1448210049B200EB81018978A6
:1027000011F01F01154A1170210049B200EB81013F
:10271000C97811F01F0151F04001114A1170317850
:102720008906FCD531784906FCD5297811F03F019E
:1027300029703178C1F381010329FAD164B230F8EC
:102740002400C0B270BD0000380BFF1F7C0BFF1FC0
:102750000140064000400640064006400440064056
:102760000540064038B504000D00200040B20028A6
:1027700003D0022864D048D37DE0DFF86C03016801
:1027800051F080710160280040B200280BD002286F
:1027900015D00ED304281ED017D3062827D020D357
:1027A00007282AD02FE04FF48061412000F0A8F9DB
:1027B0002AE04FF44071042000F0A2F924E04FF425
:1027C0004071052000F09CF91EE04FF44071062096
:1027D00000F096F918E04FF44071072000F090F9EE
:1027E00012E04FF48061652000F08AF90CE04FF4AC
:1027F0008061662000F084F906E04FF48061672074
:1028000000F07EF900E036E035E0DFF8DC02016838
:1028100051F000710160280040B2002802D0012868
:1028200006D00BE04FF44071082000F069F906E093
:102830004FF440710D2000F063F900E01BE01AE056
:10284000DFF8A802016851F080710160280040B2F1
:10285000002802D0012806D00BE04FF440710A2076
:1028600000F04EF906E04FF440710B2000F048F9FB
:1028700000E000E0FFE731BD2DE9F84F04000D0056
:1028800016001F00200040B2002811D0200040B2E6
:10289000012803D0200040B2022803D1280040B212
:1028A000022805DB40F28511DFF8440200F098F9B8
:1028B000290049B2200040B2FFF754FFDFF834028C
:1028C000D0F800904FF47A7000FB09F94846000CEC
:1028D000B0FBF6FA5FF0000B504680B250FA0BF0F6
:1028E000012802DB1BF1010BF6E75846C0B20828AD
:1028F00005DB4FF4D071DFF8F80100F071F94846BC
:1029000030FA0BF0B0FBF6F0010089B2DFF8E821F5
:1029100023005BB242F82310210049B2002903D002
:10292000022916D00AD31EE0010089B2491C01FB1E
:1029300007F16422B1FBF2F1884614E0010089B28C
:10294000491C01FB07F142F21072B1FBF2F188461B
:1029500009E0010089B2491C01FB07F16422B1FBC7
:10296000F2F18846FFE7DFF89411220052B251F8E5
:1029700022202B005BB202EBC30223005BB251F8B2
:102980002330AC464FFA8CFC03EBCC03DB6833F00E
:102990000403D360220052B251F822202B005BB214
:1029A00002EBC3022823D3605A46D2B212F00702C8
:1029B00052F0080223005BB251F823301A60020083
:1029C00092B223005BB251F823309A6000222300B8
:1029D0005BB251F82330DA64220052B251F822205F
:1029E0002B005BB202EBC30243469BB21361002291
:1029F00023005BB251F823104A60BDE8F18F2DE946
:102A0000F04180460C0015000027404640B20028E7
:102A100011D0404640B2012803D0404640B20228BF
:102A200003D1200040B2022805DB4FF4F371DFF838
:102A3000C00000F0D5F8404640B2002803D002287C
:102A400015D009D31CE0652D05D34FF4F671DFF8DE
:102A5000A00000F0C5F813E042F21170854205D3E2
:102A60004FF4F871DFF8880000F0BAF808E0652D3F
:102A700005D34FF4FA71DFF8780000F0B1F8FFE702
:102A8000DFF87400414649B250F82100414649B28E
:102A9000002903D0022912D008D318E0411C01FB01
:102AA00005F16422B1FBF2F10E0010E0411C01FBC4
:102AB00005F142F21072B1FBF2F10E0007E0411C89
:102AC00001FB05F16422B1FBF2F10E00FFE7DFF834
:102AD0002C10424652B251F82210220052B201EBA1
:102AE000C2010E61BDE8F0813C80044030800440AA
:102AF000783A0000080EFF1FF40DFF1F180BFF1F90
:102B000030B42B4B1C684FF400750200D2B252094E
:102B100095402C431C60274B0200D2B2521153F84F
:102B20002240012510F01F029540C4F8A050020079
:102B3000D2B2521153F822200300DBB213F01F036C
:102B400042F8231030BC704730B4194B1C684FF466
:102B500000750200D2B2520995402C431C60154BFF
:102B60000200D2B2521153F82240012510F01F0288
:102B70009540C4F8A05031F4E0610200D2B2521185
:102B800053F822200400E4B214F01F0452F8242069
:102B900012F4E06211430200D2B2521153F8222023
:102BA0000300DBB213F01F0342F8231030BC704760
:102BB00038800440800BFF1FDFF800F0650CFF1F1A
:102BC000DFF800F08F0CFF1FBFF34F8F46490A68F4
:102BD00012F4E062454802430A60BFF34F8FFEE7FC
:102BE00038B504000D00002000F08EF82A00210006
:102BF0003F4800F0C9F8002000F0A6F84FF47A70C2
:102C000000F0EFF8F2E738B504000D00210049B2FA
:102C1000032000F0F8F9200032BD10B50024042094
:102C200000F00CFA042000F043FA002842D1002002
:102C300000F06AF8042000F03BFA012801D10120DD
:102C40000400002000F080F82A4800F09DF84FF4BE
:102C5000FA7000F0C6F82000C0B20128EAD10420C2
:102C600000F026FA0028E5D1042000F021FA00281F
:102C700006D1002000F068F8642000F0B2F8F3E715
:102C8000042000F015FA012806D1002000F05CF8BD
:102C9000322000F0A6F8F3E7174800F075F8FFF7C8
:102CA0008BFF642000F09DF80020FFF789FFFFF7FD
:102CB0008BFFBFE710BD10B510480468012000F07D
:102CC00023F8012000F040F80D492200D2B20F2075
:102CD00042430A442100C9B20A4800F055F84FF4B3
:102CE0007A7000F07EF8ECE70CED00E00400FA05E5
:102CF000C83C0000703D0000FC3C000004ED00E01A
:102D00001004FF1F643C000010B50400200040B216
:102D1000042808DA012201211A4823005BB2C05CB2
:102D200000F0DEF90FE0042004002000441E40B251
:102D3000002808D001220121124823005BB2C05CA8
:102D400000F0CEF9F1E710BD10B50400200040B24C
:102D5000042806DA0B48210049B2405C00F01BFA57
:102D60000DE0042004002000441E40B2002806D0DC
:102D70000448210049B2405C00F00DFAF3E710BDB1
:102D800000000000B40BFF1F0EB4C0B5024603A83C
:102D900000210190009101AB0121044878440C30DE
:102DA000FDF73AFB06BC5DF810FB00BFA30F000067
:102DB00010B50400002C13D0B4F1807F03D3292177
:102DC0000E48FFF70DFF0E48002101600D490C6011
:102DD00000210D4A1160052101600168C903FCD57D
:102DE00010BD10B504002000441E002804D0074880
:102DF0000068FFF7DDFFF6E710BD00007C3900003A
:102E000010E000E014E000E018E000E0000EFF1F1A
:102E10002DE9F84304000D00200040B2002808D03E
:102E2000022828D016D3042847D035D3052855D0FA
:102E300065E0DFF8F001016851F4806101604FF452
:102E400040716620FFF75CFE4FF440716720FFF78A
:102E500057FE54E0DFF8CC01016851F400610160D5
:102E60004FF440714320FFF74BFE4FF44071442074
:102E7000FFF746FE43E0DFF8AC01016851F48051F2
:102E800001604FF440716320FFF73AFE4FF4407148
:102E90006220FFF735FE32E0DFF88801016851F467
:102EA000005101604FF440715020FFF729FE4FF4AC
:102EB00040715120FFF724FE21E0DFF86C0101682A
:102EC00051F4806101604FF440714E20FFF718FE0D
:102ED0004FF440714F20FFF713FE10E0DFF8480178
:102EE000016851F4006101604FF440718920FFF7DF
:102EF00007FE4FF440718820FFF702FEFFE7DFF87E
:102F00002C61200040B256F82000C07810F0F30089
:102F1000210049B256F82110C870200040B256F87E
:102F200020008078210049B256F8211088702000D6
:102F300040B2002803D0200040B2012806D1DFF8BB
:102F4000F00007684FF47A70474305E0DFF8E400CB
:102F500007684FF47A7047432801B7FBF0F8404602
:102F600080B2B0F5005F02DB41F6FF708046B7FB30
:102F7000F5F9404680B2B9EB0019484680B22028E6
:102F800003DBDC212C48FFF72BFE200040B256F873
:102F90002000007810F0E000C8F304210143220073
:102FA00052B256F822201170210049B256F8211071
:102FB00081F80180210049B256F82110897A11F078
:102FC000E00119F01F020A4323005BB256F82330D8
:102FD0009A72220052B256F82220127C52F08802D5
:102FE00023005BB256F823301A74220052B256F80E
:102FF0002220D27852F00C0223005BB256F8233024
:10300000DA70BDE8F183094A03005BB252F823305D
:103010001B791B06F7D503005BB252F82320D17150
:10302000704700003480044028800440940BFF1F48
:10303000000EFF1F080EFF1F703B000038B5040094
:10304000200040B208280EDA244D00220021200082
:1030500040B2285C00F044F80321200040B2285C14
:10306000FFF772FD15E0082004002000441E40B266
:1030700000280ED0194D00220021200040B2285C0B
:1030800000F02EF80321200040B2285CFFF75CFD21
:10309000EBE731BD10B504001048210049B2405C97
:1030A00000F096F8002801D1002000E0012010BDBA
:1030B00010B50400200040B2FFF7ECFF00280AD151
:1030C0000A20FFF78EFE200040B2FFF7E3FF002842
:1030D00001D1002000E0012010BD0000AC0BFF1F5B
:1030E000F8B504000D0016004FF480712000C0B246
:1030F000FFF706FD280040B2002812D14448210005
:10310000C9B2491150F821102200D2B2521150F820
:1031100022004269012314F01F0083409A434A6150
:1031200038E001213A4A2000C0B2401152F8200094
:103130002300DBB25B1152F823305B6914F01F07E8
:1031400011FA07F73B4343613000C0B2002811D1A8
:103150002000C0B2401152F82000036814F01F0094
:10316000814033EA01012000C0B2401152F8200032
:1031700001600FE02000C0B2401152F82000036847
:1031800014F01F00814019432000C0B2401152F8D2
:1031900020000160F1BD38B504001D4D2000C0B213
:1031A000401155F82000406914F01F01C840C007C5
:1031B00003D47B211748FFF713FD2000C0B2401154
:1031C00055F82010012214F01F008240CA6031BD62
:1031D00038B504000E4D2000C0B2401155F8200053
:1031E000406914F01F01C840C00703D58C2109486D
:1031F000FFF7F6FC2000C0B2401155F8200000692E
:1032000014F01F04E04010F0010032BD0000000087
:10321000240BFF1FF43A0000DFF800F0E32D00005C
:10322000DFF800F0E12B00004C48F021017001783C
:103230000906FCD5007810F0710F01D0002000E0E5
:103240000120704780B54648016851F400210160B3
:103250004448016851F400210160404801780906A2
:10326000FBD5F02101700A20FFF7D6FF01BD1CB588
:103270000400210089B24FF400604143009109200D
:10328000394908709DF80200384908709DF801001E
:10329000374908709DF8000036490870FFF7C4FFF1
:1032A000002801D100200DE0200080B2002808D1C4
:1032B0007FF0010240F20C41200080B200F003F8E0
:1032C00000E0012016BD7CB506000C0015003100A1
:1032D00089B24FF40060414311FA84F0019020005C
:1032E00080B2042190FBF1F201FB1200002803D010
:1032F000EA212148FFF794FF200080B240F6010147
:10330000884203DBEC211C48FFF78AFF9DF806008A
:10331000164908709DF80500154908709DF80400CD
:103320001449087000959DF80300144908709DF831
:103330000200134908709DF80100124908709DF8B9
:10334000000011490870062007490870FFF76CFF5C
:10335000002801D1002000E0012076BD00000240DD
:1033600004F0014008F0014007000240060002405E
:103370000500024004000240FC3900000B0002403E
:103380000A0002400900024008000240F0B40F4E5B
:103390003468356855F47F0535600D0615F07065A5
:1033A00055EA0075170517F470073D431F0417F41D
:1033B00070273D43064F3D6000252F00FFB29F421E
:1033C00001D26D1CF9E73460F0BC704700F0014099
:1033D0004480044080B500F089F800F028F800F03F
:1033E0000AF8FFF71AFC012201210420FFF778FEFA
:1033F00000F09CF8FEE710B52E4C0D20FFF758F9B1
:1034000020602D4922684FF47A7042430A600868B0
:103410002A490968C1F30361491CB0FBF1F028494E
:1034200008605FF4E1310320FFF7F2FC10BD2DE9E5
:10343000F0412449244888420AD000221400B4F5FF
:10344000826F05D251F8242040F82420641CF6E74E
:1034500000F098F81D4B1E4A1E498E1A3000461E79
:10346000002804D010781870521C5B1CF6E71A4D27
:103470001A4C671B3800471E002803D00020287014
:103480006D1CF7E7DFF858C0DFF858E0DFF8588028
:10349000B8EB0E063000461E002808D09EF800004B
:1034A0008CF800001EF1010E1CF1010CF2E7BDE8E2
:1034B000F0810000040EFF1F000EFF1F4480044037
:1034C000080EFF1F000000000000FF1F1004FF1F78
:1034D000801B0000A8230000F40DFF1F600EFF1FDB
:1034E000380CFF1F18320000D433000080B500F004
:1034F00007F80C490A884FF6FE7002400A8001BDA9
:10350000EFF3118072B608494CF220520A804DF652
:1035100028120A800100C9B2002900D162B67047A2
:1035200000000000002005400E20054038B500F0E6
:103530003FF84FF47A70FFF754FC40F2BA42002192
:103540000120FFF75CFA4FF47A70FFF74AFC002481
:10355000002540F2E930854207DA280000F031F812
:103560000A20FFF73EFC0A35F3E74FF47A74002C8B
:10357000EED4200000F025F80A20FFF732FC0A3CC8
:10358000F5E7000010B504004FF4007094FBF0F173
:1035900000FB1140002803D01E210348FFF720FB49
:1035A0000248046010BD0000EC3B000008ED00E0A4
:1035B00080B540F28253642200210120FFF75CF9BC
:1035C00001BD38B50400200000F01AF8094900F0E8
:1035D00029F8094900F092F80100084800F00CF9B8
:1035E0000500280000F048F9020000210120FFF743
:1035F00006FA31BD0000D74300401C4600C0CB4452
:10360000C2175040801AB0FA80F10AD08840D1F138
:103610009D01D20742EAC151020672F1004241EB1C
:1036200010207047FF2212EAD05C1DBF12EAD1536E
:10363000944593422BE09C44D30780EA01021A4050
:1036400043EA002043EA0121A1FB0030C04238BF19
:1036500040007CF17F010BDBFE294ADA5B0842EA7D
:10366000C15153EA006373F1004C51EB10207047D5
:10367000D1F1080CDCF120012FDB5B0810FA01F11D
:103680000B4320FA0CF073F1004150417047944510
:103690001CBF02EAD153934280EA010202F00042C9
:1036A0001DD0400019D0490017D05BB9634514D034
:1036B0000902B1FA81F39940BCEB030CC00140F060
:1036C0000040C1E70002B0FA80FC10FA0CF0B3EB46
:1036D0000C0CC90141F00041B6E7100070474000F2
:1036E0000AD0490008D010F1807F94BF11F1807F8B
:1036F00002E042F0FF407047D043704710B5FF230F
:1037000013EAD0541DBF13EAD1529C429A4239E0C9
:10371000A41ADA0780EA0103134042EA012142EACF
:103720000020421A3CBF641E01EB4202090AB2FBB0
:10373000F1FE01FB1E221202B2FBF1F001FB10228E
:103740006EF30F201202B2FBF1FE4EEA00207F342E
:1037500006DDFE2C24DA53EA500050EBC45010BDB5
:10376000D4F1020401FB1E2240F08071192C1DDCF3
:1037700021FA04F0C4F12004A140114371F1004288
:10378000584110BD9C421ABF03EAD1529A420FE041
:1037900080EA010E0EF00043400004D0490016D12B
:1037A00043F0FF4010BD490008BFD343180010BDCF
:1037B0009C4205D1D21AF7D001F00041484010BD1B
:1037C0004A0212BF0846484000F0004010BD4AB906
:1037D0000902B1FA81F2914044B1A418C00140F04D
:1037E00000409EE7C90141F0004152420002B0FA98
:1037F00080F4A040141B94E790EA010F40F152803E
:1038000081F00041421A3CBF801A89184FF0004CE9
:10381000C0F3C752FF2A24D0C1F3C75313B3D21A3F
:10382000D2F1190327DD4CEA01214CFA03F321EA16
:103830000303D140C20D4CEA0020401834BF20EAF7
:103840000C004CEA5000D20553EA006373EB0C0CF9
:1038500052EB1020420012F1807F38BF7047C00D3C
:10386000C0057047490212BF9A4200EB5120F8E7A9
:10387000D2F11703D9D57047C0F3C7517E390EDD99
:10388000C217D1F1200106DD000240F00040C8401F
:10389000104450407047D04380F0004070470020F3
:1038A00070470000431A4FF000423EBF5340C01A19
:1038B000C91800BFD3095FEAD05C13EB400F34BFD7
:1038C000B3EB410F40E07CEBD1530CD342EA012132
:1038D00022D8D1EB402009D3400A28BF5FEA50012B
:1038E00040EBCC507047401A15D04002B0FA80F23D
:1038F000521C9040400A4FEA3C23B3EB026384BF62
:1039000000EB730007E040F400001A16DB07C2F179
:103910000102D04018437047182BFCDC31FA03F247
:1039200002FA03F3591A38BF42F00102D2EB4020E9
:103930003CBF4000ACF1010C5FEACC5CC20572F107
:1039400000414CEB5020704713EB400F0FD2C9429F
:1039500009D0ACEBD153022B03DB4902172BDDDD81
:1039600070479143401AC042D5D10020704713EBF5
:10397000410FD0D36FF0000070470000443A5CE57F
:10398000B1B1E5A4964B3630E58F82E88083E4BB85
:10399000A3E7A08156352E33EFBC88E694AFE68CC2
:1039A000814658E38081464EE5928C444E5AEFBCE6
:1039B000895CE4B9A6E5A496E79A84E58F82E8805D
:1039C00083E4BE8BE7A88B5CE888B5E69CBA5CE82C
:1039D00088B5E69CBAE5B7A6E58FB3E69186E58A99
:1039E000A85C436869705C7372635C4D4B36305FF2
:1039F0005379735469636B2E63000000443A5CE5AD
:103A0000B1B1E5A4964B3630E58F82E88083E4BB04
:103A1000A3E7A08156352E33EFBC88E694AFE68C41
:103A2000814658E38081464EE5928C444E5AEFBC65
:103A3000895CE4B9A6E5A496E79A84E58F82E880DC
:103A400083E4BE8BE7A88B5CE888B5E69CBA5CE8AB
:103A500088B5E69CBAE5B7A6E58FB3E69186E58A18
:103A6000A85C436869705C7372635C4D4B36305F71
:103A7000666C6173682E6300443A5CE5B1B1E5A4FD
:103A8000964B3630E58F82E88083E4BBA3E7A081C4
:103A900056352E33EFBC88E694AFE68C814658E36A
:103AA0008081464EE5928C444E5AEFBC895CE4B965
:103AB000A6E5A496E79A84E58F82E88083E4BE8B2E
:103AC000E7A88B5CE888B5E69CBA5CE888B5E69C1C
:103AD000BAE5B7A6E58FB3E69186E58AA85C4368A8
:103AE00069705C7372635C4D4B36305F66746D2E2B
:103AF00063000000443A5CE5B1B1E5A4964B363072
:103B0000E58F82E88083E4BBA3E7A08156352E339E
:103B1000EFBC88E694AFE68C814658E38081464E40
:103B2000E5928C444E5AEFBC895CE4B9A6E5A496B4
:103B3000E79A84E58F82E88083E4BE8BE7A88B5CFC
:103B4000E888B5E69CBA5CE888B5E69CBAE5B7A615
:103B5000E58FB3E69186E58AA85C436869705C737B
:103B600072635C4D4B36305F6770696F2E63000087
:103B7000443A5CE5B1B1E5A4964B3630E58F82E876
:103B80008083E4BBA3E7A08156352E33EFBC88E6E3
:103B900094AFE68C814658E38081464EE5928C4492
:103BA0004E5AEFBC895CE4B9A6E5A496E79A84E591
:103BB0008F82E88083E4BE8BE7A88B5CE888B5E65B
:103BC0009CBA5CE888B5E69CBAE5B7A6E58FB3E693
:103BD0009186E58AA85C436869705C7372635C4D8A
:103BE0004B36305F756172742E630000443A5CE5B9
:103BF000B1B1E5A4964B3630E58F82E88083E4BB13
:103C0000A3E7A08156352E33EFBC88E694AFE68C4F
:103C1000814658E38081464EE5928C444E5AEFBC73
:103C2000895CE4B9A6E5A496E79A84E58F82E880EA
:103C300083E4BE8BE7A88B5CE888B5E69CBA5CE8B9
:103C400088B5E69CBAE5B7A6E58FB3E69186E58A26
:103C5000A85C436869705C7372635C6D6973632E02
:103C6000630000000A2A2A2A2A64656661756C745A
:103C70005F69737220656E7465726564206F6E2073
:103C8000766563746F722025642A2A2A2A2A0A0A12
:103C9000257320496E74657272757074000000009F
:103CA00010B5074979441831064C7C44163404E0B9
:103CB0000A68081D114488470146A142F8D110BD89
:103CC0002C00000038000000417373657274696F46
:103CD0006E206661696C656420696E2025732061C1
:103CE00074206C696E652025640A00005BD3FFFFB9
:103CF0006C000000F40DFF1F000000000ABDF8D0AA
:103D0000D0BDE2CBF8B2D9D7F7A3ACC7EBD6D8D0A9
:103D1000C2CBA2C8EBB9CCBCFE00000000F00DF88D
:103D2000002801D0FFF7BCFFAFF300800020AFF305
:103D30000080FFF7FBFB00F002F80120704700F065
:103D400001B8000007463846FDF714FFFBE738B519
:103D500004460D46284600F005F8A84218BF002486
:103D6000204632BD0149FEF74EBF00BFF00BFF1FDA
:103D70000ABDF8C8EBCBC0D1ADBBB7B5C8B4FDA385
:103D8000A1000000AFF30080AFF30080FFF7C6FF93
:043D900000002E0001
:0400000500003D8535
:00000001FF
