:10000000F8FF0020110400008B2900008B2900005C
:100010008B2900008B2900008B2900008B29000010
:100020008B2900008B2900008B2900008B29000000
:100030008B2900008B2900008B2900008B290000F0
:100040008B2900008B2900008B2900008B290000E0
:10040000FFFFFFFFFFFFFFFFFFFFFFFFFEFFFFFFFD
:1004100062B604F033FBFEE72DE9F0439FB00FF620
:10042000C036269CDFF81C898DF83B4002910024E1
:100430000B944FF0FF37044691461D460AE019F829
:10044000011B0298A0470028029000F0A1800B98A1
:10045000401C0B9099F8000050B12528EFD10021E5
:100460000022059106920791089209910A9203E0F1
:100470000B98A0E041F0010119F8010F2028F9D0F4
:1004800023280CD02B2804D02D2805D0302809D0C3
:1004900080E041F00201EFE741F00401ECE741F0B8
:1004A0000801E9E741F01001E6E70D920AE00D9836
:1004B000404505DA00EB800002EB4002303A0D9235
:1004C00009F1010999F80020A2F130000A28EED3C1
:1004D00099F800002E2818BF0C9726D119F8010FA3
:1004E0002A2808D12868286009F1010950F8042B4E
:1004F00028600C9219E02D280CBF09F10109002099
:1005000000220C920BE040B90C9A424505DA02EB4E
:10051000820203EB4203303B0C9309F1010999F885
:100520000030A3F130020A2AEDD3ADF8381030467E
:1005300099F8001000F0A4FD08B119F8010B8DF82E
:100540003A009DF83A00682805D199F8000068281B
:100550000CD1622106E06C2804BF99F800006C28D9
:1005600004D171218DF83A1009F1010910A8049005
:100570002A4619F8013B6946204600F05CF838B974
:1005800010AA6946204600F088F900287FF562AF7E
:10059000384610E02A2888D12A682A6052F8040BCD
:1005A0002A6000280D9003D540420D9041F00401CF
:1005B00009F101098CE71FB0BDE8F083622820D063
:1005C000682811D06A2803D06C2827D0712825D13B
:1005D0000868C01D20F007000860D0E9002308303B
:1005E0000860194610467047002A0A680A601068B9
:1005F00003D0121D0A6000B217E0121D0A6080B21B
:1006000017E0002A0A680A60106803D0121D0A6009
:1006100040B20AE0121D0A60C0B20AE0002A0A686D
:100620000A60106803D0121D0A60C1177047121DBE
:100630000A600021704770B51C460D46B4F12500D4
:100640002E69114600F017812038022865D9133829
:1006500041D00B3816D0401E1ED0401E02285CD957
:10066000001F19D0401F00F08380401E33D0401E71
:1006700000F0CD80C01E00F0DC80801E2BD0C01E9C
:1006800029D0FEE06869421C6A610A680A6052F873
:10069000043B0A603354FEE095F83A000122FFF76C
:1006A0008DFFC5E900010023994204DA6869411C05
:1006B00069612D220DE0288F810704D56869411CEE
:1006C00069612B2205E0C00722D56869411C696178
:1006D000202232541CE095F83A000022FFF76EFF0A
:1006E000C5E9000195F83800010711D5D5E90023C7
:1006F0000020834208BF82420AD044F020007828BC
:1007000006D1686930213154401C421C6A6134545E
:10071000214668693044E86087E00868C01D20F021
:1007200007000860D0E9002308300860C5E900230D
:10073000D5E90001C80F04D06869411C69612D2208
:100740000DE0288F810704D56869411C69612B225F
:1007500005E0C00704D56869411C69612022325454
:1007600068693044E8602146284600F0C8F992E004
:1007700005F13A02507820B14FF0FF340FF66800CF
:1007800062E01078622808D0682824D06A2812D045
:100790006C282ED071280ED02BE00A680A6052F81F
:1007A000040B0A6020B94FF0FF340FF654004BE001
:1007B000E96A01706FE00A680A6052F8040B0A6087
:1007C00020B94FF0FF340FF638003DE0EA6AD31746
:1007D000C0E900235FE00A680A6052F8040B0A606F
:1007E00020B94FF0FF340FF618002DE0E96A0180C0
:1007F00051E00A680A6052F8040B0A6020B94FF011
:10080000FF340FF2FC701FE0E96A016043E00A6800
:100810000A6052F8040B0A60002120F0000221F067
:10082000FF33C5E90023EE607821284600F0BBF8CD
:1008300031E00868086050F8044B0860EC603CB98F
:100840004FF0FF340FF2D07000F026FC201A70BD7C
:100850002E6B002E04D5204600F03EFC044608E036
:1008600032460021204600F053FC002814BF041B30
:100870003446AC610FE06869411C6961252232543D
:1008800009E06969481C686125227254210002D080
:10089000431C6B613454002070BD2DE9FC410F46B0
:1008A000064690467A6B7869396ABC6A121AB8694A
:1008B000521A796A121AF869521A121A97F83800FD
:1008C000141B41070FD42020002C8DF800000ADDF6
:1008D000254601236A463946304600F069FB002868
:1008E0005DD16D1EF5D17B6942463946304600F038
:1008F0005FFB002853D130208DF800003D6A002DA9
:1009000009DD01236A463946304600F051FB0028D4
:1009100045D16D1EF5D1BB69FA683946304600F005
:1009200047FB00283BD130208DF800007D6A002D68
:1009300008DD01236A463946304600F039FB70BBBA
:100940006D1EF6D1F868B969FB6942183946304620
:1009500000F02EFB18BB30208DF80000BD6A002D82
:1009600008DD01236A463946304600F021FBB0B964
:100970006D1EF6D197F8380041070DD52020002CC8
:100980008DF8000008DD01236A463946304600F044
:100990000FFB20B9641EF6D10020BDE8F6814FF0B0
:1009A000FF30BDE8F6812DE9FC4707468C463E69DD
:1009B000BCF16F0F08BF082405D04CF02000782848
:1009C00014BF0A2410243C25D7E90023BCF1640F8E
:1009D00018BFBCF1690F9046994606D100218B42A1
:1009E00003DAD8F1000869EB49094FF0000AD14554
:1009F00008BFD0451FD1386BE8B9082C4BD197F808
:100A00003800010747D530203B2586F83B0042E0FF
:100A100000280ED597F8380000F01400102808D1EF
:100A20007B6B7969386A5B1A1B1A9A1A002AC8BF4D
:100A30003A62BDE8F3878DF800C040464946224639
:100A4000E31700F091FB3032D0B26D1E3A280195C9
:100A500004DB9DF80000A0F151018A187255404650
:100A600049462246E31700F07FFB89468046D14580
:100A700008BFD04503D0F86871198842DDD3082C2F
:100A800009D197F83800010705D5705D302802D0EC
:100A90006D1E30207055C5F13C02BA617119F960C4
:100AA000386B8242B4DA821A3A624FF6EF70398FAD
:100AB00001403987BDE8F3872DE9D04306460F464C
:100AC00014464FF00008DFF8809212E0E00707D5E7
:100AD00042464B463046394600F05EFC06460F461D
:100AE0004046494642464B4600F056FC641080465C
:100AF0008946002CEAD130463946BDE8D0832DE93D
:100B0000F84F05468CB0286BD5E9008900288B4644
:100B100002AC02D50620286305E001BF4BF020009F
:100B2000672801212963D5E900A670004015401C03
:100B30000DD131030BD0ABF1610103201A29A8615B
:100B400002D20FF2F04110E00FF2EC410DE0710023
:100B50004915491C0ED130030CD1ABF161010320C2
:100B60001A29A86116D30FF2D841E868032200F0D1
:100B7000E5FCE3E026F00043B3F5801F2AF0000215
:100B800011D20027BB4208BFBA42019705D1504697
:100B9000314618E00FF2A441E7E701AA504631467A
:100BA00000F020FD08E06948694900EB135001900E
:100BB0000E40684950463143019B674F47F29752B8
:100BC000534393FBF7F7C5E90001D5E9000620F090
:100BD000000226F000430020834204BF824200232B
:100BE00000F0A480404649460022002300F032FD78
:100BF00038BF89F000493A46D2F10702019703DD78
:100C00004946FFF759FF0AE0524200205349FFF7D7
:100C100053FF02460B464046494600F033FD8046EE
:100C20004BF02006662E286B06BF019C0A34062472
:100C30002418142CC8BF1424302089468DF80800CD
:100C40000DF10907002C33DD4046494600F03EFE19
:100C500001460A4607F1080304200A27B2FBF7F70A
:100C600007EB870EA2EB4E02303203F8012C0A226A
:100C7000B7FBF2F202EB820EA7EB4E073037401EB5
:100C800003F8027DE9D1083C002C03F10807D9DD07
:100C9000084600F02FFE02460B464046494600F04B
:100CA00037FE00222E4B00F077FB80468946CBE7CB
:100CB0000DF109003F1A0DF1090404E00198401EEE
:100CC0007F1E0190641C20783028F7D0662E02D158
:100CD0000198401C03E0652E0CBF012000202B6B07
:100CE000C3189F42B8BF7B1E002B1ED4BB4204DA40
:100CF000E05C3528A8BF392000DA30201946621E92
:100D000002EB010800E05B1E18F80199491E8145BD
:100D1000F9D0392802D1605C401C6054002904D508
:100D20000198401C14465B1C0190019800B2009091
:100D30001BB222465946284600F014F80DB0BDE813
:100D4000F08F0000CBCCCC0C0000244002FCFFFF55
:100D5000FFFF0F800000E03FA08601000000F03F91
:100D600084D797412DE9F84783B005468A469146D6
:100D7000984600F03FFEB8F1000F406A2F6B0678EE
:100D800003DC4FF001080FF2BC294AF02000BDF946
:100D90003040662808BF641C13D0672840F08F805D
:100DA00014F1040F7ADBBC4278DA95F83800641C41
:100DB000010702D4B845B8BF474620B23F1A48BF22
:100DC00000270FFA84FAE868A969BAF1000F23DC5A
:100DD0004A1C30234354002F03DC95F838000107E8
:100DE00002D5E8688654521C17EB0A0FB8BF7C4244
:100DF00024B2E71960424745B8BFB846AA616862A5
:100E00000FFA88F4EC61E868AB6922464946184459
:100E100000F094FB3F1B18E022B29045084416DA1C
:100E20004246494600F08AFBA8694044A861AAEB03
:100E30000801002F696203DC95F838100A0704D511
:100E4000E9680E54E869401CE861AF6299E04946E0
:100E500000F074FBA869002F5044A8EB040803DCE1
:100E600095F838100A0702D5E9680E54401CA861AD
:100E70000FFA88F08742EB68A869B8BFB8460FFA46
:100E800088F209EB0A01184400F058FBA9690FFA2F
:100E900088F00144A961381A686272E0B84504DA42
:100EA00095F838100A0758BF47467F1E48BF0027ED
:100EB000BAF1670F0CBF4FF0650A4FF0450AA969F8
:100EC000EB68481CA861002F19F8012B5A5403DC69
:100ED00095F838100A0719D5E968431CAB610E5420
:100EE000002F13DDA8F1010630B28742D5F80CC0FF
:100EF000B8BF3E4632B249460CEB030000F01EFB81
:100F0000A86936B23018BF1BA8616F62E868A9698A
:100F10000844002C80F800A003D42B224270811CCE
:100F200003E02D2141706442811C00206A460AE0E2
:100F300023460A2493FBF4F404EB8406A3EB460354
:100F400002F8013B401C24B2002CF1DC012806DC35
:100F50004AF02002652A04BF302201F8012B48B96B
:100F6000302001F8010B07E0401E1DF8003030333F
:100F700001F8013B0028F7DCEA68A8691044091A67
:100F8000E96195F8380000F0140010280DD16A6965
:100F9000A969686A8A18E9698218A86A8A18821891
:100FA000686B8242BCBF821A2A6204B0BDE8F08737
:100FB000F8B505460E4617461C46002074B117F8D2
:100FC000011BB068A847B06030B1F06A401CF06205
:100FD0000020641EF3D1F2BD4FF0FF30F2BD0000DF
:100FE000686A6C747A4C00007072696E74665F7324
:100FF0003A20256E20646973616C6C6F77656400BC
:101000007072696E74663A2062616420256E206198
:101010007267756D656E74007072696E74665F7369
:101020003A2062616420257320617267756D656E78
:10103000740000006E616E004E414E00696E6600E5
:10104000494E4600300030B4002513E050F8042B20
:10105000D30744BFA9F101039A18091F042942F8D4
:10106000045BFAD213468C0744BF15809B1CC9074A
:1010700048BF1D7050F8041B0029E7D130BC7047F1
:101080000278C9B28A421AB11CBF10F8012FF9E7E1
:1010900018BF00207047FF0080B500B906A00549C1
:1010A0000B681BB122220021984701E000F0A6FC4A
:1010B000222002BD000FFF1F636F6E73747261699F
:1010C0006E742068616E646C65723A20626164209F
:1010D0006D6573736167650000F10103810704D0DA
:1010E00010F8011B820781B1FAD10268A2F1013127
:1010F000914311F0803104BF50F8042FF6E709BA8C
:10110000B1FA81F100EBD100401CC01A7047000019
:10111000C9B2830706D0521E22D310F8013B994270
:10112000F7D11FE0083A13D302F1040241EA01218A
:1011300041EA014150F8043B121F21BF4B40A3F18B
:10114000013C2CEA030C1CF0803FF3D0C9B2001F15
:10115000083210F8013B521E28BF91EA030FF8D85D
:1011600018BF0120401E7047BBBBE1B1B2F5803F04
:1011700080F07E80022A1ED98C46B1FBF2F102FB80
:1011800011C31B0443EA1043B3FBF2FC02FB1C3304
:1011900080B240EA0343B3FBF2F002FB103240EAB4
:1011A0000C4000237047022A05D98446B0FBF2F0B8
:1011B00002FB10C270474AB105D100F00102490894
:1011C0005FEA3000704700220023704700F01ABC2D
:1011D0000B000200002100207047904271EB030CCD
:1011E000F6D3B3F5803F2FD2F0B5B3FA83F7B1FA57
:1011F00081F4A7F10F0E3D1B5340CEF1200602FAF9
:101200000EF2F3415340B5F10F0746D80F3C2C4482
:101210004140C4F12006A040F1414140B1FBF3F64A
:1012200003FB1611A2FB0645001BA94102D2761E44
:101230008018594180EA010221FA0EF362FA0EF297
:1012400000215A403046F0BD30B4B1FBF3FC03FB43
:101250001C11A2FB0C45001BA94103D2ACF1010CEF
:101260008018594130BC02460B4660460021704749
:10127000B2F1807F65D3F0B5B2FA82F7B1FA81F4AA
:10128000C7F10F063D1B22FA06F307F1110EF241DA
:1012900020355A40B5F10F07B8D94140C4F12006B6
:1012A000A040F1414140B1FBF3FC03FB1C11A2FB48
:1012B0000C45001BA94103D2BCF1010C8018594117
:1012C0000F2F12D30F3FC90341EA5041B1FBF3F690
:1012D00003FB1611A2FB0645D4EBC030A94102D294
:1012E000761E8018594146EACC3C07B34140C7F10D
:1012F0002006B840F1414140B1FBF3F603FB161163
:10130000A2FB0645001BA94102D2761E8018594156
:1013100080EA010221FA0EF3C7F1200462FA0EF20C
:101320000CFA07F05A402CFA04F13043F0BD80EA81
:10133000010221FA0EF3002162FA0EF260465A40D1
:10134000F0BD8C46B1FBF2F102FB11C31B0243EA74
:101350001063B3FBF2FC02FB1C331B024CEA0020BF
:1013600043EA1063B3FBF2FC02FB1C331B024CEAA2
:10137000002043EA1063B3FBF2FC02FB1C331B02A8
:101380004CEA002043EA1063B3FBF2FC02FB1C3280
:101390004CEA002000237047B0B581EA030C0CF042
:1013A000004C40F2FF7515EA11541DBF15EA1357A2
:1013B000AC42AF4239E0E41923EA455343F48013C9
:1013C000C90241F0004141EA505EC7021100A7FB8B
:1013D000020200284FF00000EEFB01204FF0000158
:1013E000E3FB072118BF42F00102401800214941E8
:1013F000E3FB0E01A4F580640F0302D252004041CA
:10140000494154F101046CDD470872F1004250F18A
:10141000000051EB0451A1F580115CBF41EA0C01C1
:10142000B0BD4CEA05510020B0BD05EA1357AC42EF
:1014300014BFAF4241E050EA410E1CBF52EA430ED6
:1014400002E061460020B0BD24423C441BD15FEA6B
:10145000070EF6D0090302BF01460020AEF1140EBC
:10146000B1FA81F7AEEB070401FA07FE0C37C7F1BA
:10147000200100FA07F7C8404EEA000E23EA455360
:1014800043F48013A2E733F00043B3FA83F704BFB9
:10149000B2FA82FE77440B3FE41BB7F1200E2FBF58
:1014A00002FA0EF3BB40C7F1200E22FA0EFE38BF3F
:1014B00043EA0E03BA40641C82E750EA410E14BFAF
:1014C00052EA430E6FF000014FF4001717EB430F81
:1014D0008ABF194617EB410FB5E74CEA05510020CA
:1014E000B0BDD4F10104B4F120070FDAC4F1200734
:1014F000520828BF42F0010210FA07F501FA07F777
:10150000E1BF2A43E0403843E1400FE0352C98DC4E
:10151000C7F1200452EA400220FA07F218BF42F055
:10152000010231FA07F0A1400A43002172F10042A2
:1015300050F1000051EB0C01B0BD000062B38B070D
:1015400008D0521E11F8013B00F8013B00F0248046
:101550008B07F6D1830740F0208000BF103A07D3F5
:1015600030B4B1E83810103AA0E83810F9D230BCE5
:10157000530724BFB1E80810A0E8081044BF51F891
:10158000043B40F8043BD20724BF31F8022B20F87B
:10159000022B44BF0B7803707047121F17D35B00F8
:1015A00009D151F8043B20F8023B1B0C121F20F814
:1015B000023BF6D20BE051F8043B00F8013B1B0A5A
:1015C00020F8023B1B0C121F00F8013BF3D238BF7E
:1015D000121D521E24BF11F8013B00F8013BF8D840
:1015E0007047000010B5144600F002F8226010BDEC
:1015F000C1F30A5343B14A0012F5001F28D2A3F2E7
:10160000FE32A1EB0251704750EA410C20D001F0AC
:10161000004C31EA0C01B1FA81F204BFB0FA80F358
:10162000D2180B3AB2F120032CBF00FA03F191401B
:1016300041EA0C013EBFC2F1200C20FA0CF3194321
:101640009040524240F2FD33D21A01EB03517047F1
:10165000002270474FF4001C1CEB410F94BF1CEBA1
:10166000430F09E041EA030C50EA4C0C52EA0C0C1F
:1016700003D2994208BF9042704714BF8B42824206
:1016800070470000F0B540F2FF7581EA030C0CF0E2
:10169000004C15EA11541DBF15EA1357AC42AF4276
:1016A000E5E0BC41C1F31301C3F31303801A994170
:1016B00043F4801304D2641E40004941801859410C
:1016C000C90241EA5051B1FBF3F603FB1611A2FB2C
:1016D0000675D7EBC020A94102D2761E8018594169
:1016E000C90241EA5051B1FBF3FE03FB1E11A2FBFC
:1016F0000E75D7EBC020A94103D2AEF1010E8018C0
:101700005941890241EA9051760546EA8E2EB1FB95
:10171000F3F603FB1611A2FB0675D7EB8020A94157
:1017200002D2761E80185941C90241EA50514EEA50
:10173000060EB1FBF3F603FB1611A2FB0675D7EB01
:10174000C020A94102D2761E80185941C90241EA3F
:101750005051B1FBF3F703FB1711A2FB0735D3EB95
:10176000C020A94167F100070CBF004247F0010704
:1017700066F3D5274FEA1E31B80814F5806412DDF0
:10178000BD0775F1004250EB0E5051EB045111F5BD
:10179000801F5CBF41EA0C01F0BD4CF07F6141F05D
:1017A000E0410020F0BDBD076D0840EA0E5041F455
:1017B0008011D4F10104B4F120060ADAC4F1200644
:1017C0000200E04001FA06F3E1401843B24015433D
:1017D0000EE0342C13DCC6F1200445EA40056D0808
:1017E00020FA06F2154321FA06F0A1400D4300212C
:1017F00075F1004250F1000051EB0C01F0BD0020EA
:101800005FEA0C01F0BDCFB992185B41B3FA83F7E0
:1018100004BFB2FA82F6BF190B3FB7F120062FBF03
:1018200002FA06F3BB40C7F1200622FA06F638BFDB
:101830003343BA401CB1E419641E33E77F4231F0F0
:101840000041B1FA81F404BFB0FA80F6A4190B3C50
:10185000B4F120062FBF00FA06F1A140C4F1200622
:1018600020FA06F638BF3143A0403C1B1AE7AC42D1
:101870001ABF05EA1357AF4212E050EA41061CBFF7
:1018800052EA4306BFE750EA4107304661461CBFB3
:1018900041EA0551F0BD52EA430C08BFC143F0BD17
:1018A00000204FF4001616EB410F98BF16EB430FC4
:1018B00008BF16EB410F24BFC14305E016EB430FF1
:1018C0000CBF61464CEA0551F0BD0000400D4918BF
:1018D00040EA81200CD2490DA1F58061491C40F0FD
:1018E000004005DBD1F11F0154BFC840C01770474D
:1018F00000207047014648B1B0FA80F18840C91C09
:10190000C1F58461090501EBD02140057047000055
:1019100070B44FF0004591EA030F40F17D806B40B9
:10192000841A71EB030603D2001BB14112197341F3
:101930004FF4001C1CEB410F34BF7CEB430442E02E
:101940000C0DA4EB1356352E4FDC45EAC323DB0AFE
:1019500045EAC121C912B6F120050DDD63FA05F68D
:10196000EB4086EA0305124218BF45F00105C01896
:1019700051F100010CD213E062FA06F5F240554035
:10198000F3415A40B340F3405A408018594107D3BD
:1019900049085FEA30005FEA350528BF45F00105D8
:1019A00001F58011420875F1004250F1000041EB51
:1019B00004514E0016F5001F70BC38BF7047002060
:1019C000090D090570471CEB410F10D252EA43067E
:1019D0000BD0BCEB410F05D80C0DAB43661E342E6B
:1019E000B6DD02E0AB438018594170BC704770BC53
:1019F0007047000000487047240CFF1F012000F0D2
:101A0000C1B800007047000070B44FF0004591EA83
:101A1000030F7FF585AF6B40841A71EB030604D288
:101A20006E40001BB141121973414FF4001C1CEBB6
:101A3000410F34BF7CEB430683E00C0DA4EB13563F
:101A4000362E00F37C80012E45EAC32341DC43EAB5
:101A5000525312BFD20292025B08240545EAC1210B
:101A600041EA5051D2EBC020994125D407D1B0FAB8
:101A700080F610FA06F162D00020203608E0B1FAB4
:101A800081F6B140C6F1200220FA02F21143B040C3
:101A90004FEAF474B4EB465434F001064FEA740490
:101AA0000AD8D6F50016760D04F00044F04061FA2D
:101AB00006F25040F1404840C00A40EA415021F04F
:101AC000004128BF5FEA500550F1000044EBD121EE
:101AD00035E0DB0A45EAC121C90AB6F120050EDD71
:101AE00042EA0242120CC5F1200603FA06F6EB4068
:101AF00042EA06056D42984161F100010DE062FA8B
:101B000006F5F240554063FA06FC82EA0C02F34007
:101B10005A406D42904161EB030111F4801F05D1E1
:101B2000641E620502D06D004041494121F48011DC
:101B3000430875F1004350F1000041EB045170BCC3
:101B400070471CEB410F15D223F0004352EA4306C5
:101B50000BD04FEA4C0CBCEB410F04D80C0D661EA9
:101B6000342EB7DDEBE7801A994150EA410608BFF1
:101B70000021E4E708BF1CEB430F28BF6FF0000112
:101B8000DDE700002021090326311820ABBEF9E76C
:101B900000B0034000B00B40000000000000000057
:101BA0000000000000000000000000000000000035
:101BB0000000000000004E6F6E4D61736B61626C3F
:101BC0006500000000486172644661756C74000035
:101BD000000000004D656D4D616E6167656D656E5D
:101BE0007400004275734661756C7400000000005B
:101BF000000055736167654661756C7400000000F4
:101C000000000000000000000000000000000000D4
:101C100000000000000000000000000000000000C4
:101C200000000000000000000000000000000000B4
:101C300000000000000000000000000000535643B8
:101C4000616C6C00000000000000000044656275DB
:101C5000674D6F6E69746F72000000000000000035
:101C60000000000000000000000050656E64535644
:101C70000000000000000000005379735469636B9A
:101C80000000000000000000444D41300000000052
:101C900000000000000000444D4131000000000041
:101CA000000000000000444D413200000000000030
:101CB0000000000000444D4133000000000000001F
:101CC00000000000444D413400000000000000000E
:101CD000000000444D4135000000000000000000FD
:101CE0000000444D413600000000000000000000EC
:101CF00000444D41370000000000000000000000DB
:101D0000444D413800000000000000000000004485
:101D10004D41390000000000000000000000444D6B
:101D200041313000000000000000000000444D413F
:101D3000313100000000000000000000444D41313E
:101D40003200000000000000000000444D4131332B
:101D500000000000000000000000444D413134004C
:101D6000000000000000000000444D41313500003B
:101D70000000000000000000444D415F4572726F9A
:101D8000720000000000004D434D00000000000004
:101D90000000000000004654464C00000000000017
:101DA0000000000000526561645F436F6C6C6973F2
:101DB000696F6E004C56445F4C565700000000009F
:101DC0000000004C4C570000000000000000000024
:101DD00000005761746368646F67000000000000D2
:101DE00000524E470000000000000000000000000C
:101DF00049324330000000000000000000000049AC
:101E00003243310000000000000000000000535089
:101E1000493000000000000000000000005350495D
:101E20003100000000000000000000005350493263
:101E3000000000000000000000000043414E305F41
:101E40004F525F4D425F6275660043414E305F42C4
:101E500075735F4F666600000043414E305F457208
:101E6000726F72000000000043414E305F54785F93
:101E70005761726E696E6743414E305F52785F57AB
:101E800061726E696E6743414E305F57616B655F8B
:101E900055700000005265736572766564353100D7
:101EA000000000005265736572766564353200008B
:101EB00000000043414E315F4F525F4D425F6275FB
:101EC000660043414E315F4275735F4F66660000A6
:101ED0000043414E315F4572726F72000000000096
:101EE00043414E315F54785F5761726E696E67434C
:101EF000414E315F52785F5761726E696E67434140
:101F00004E315F57616B655F55700000005265731D
:101F100065727665643539000000000052657365AE
:101F2000727665643630000000000055415254302E
:101F30005F52585F54580000000055415254305FC2
:101F400045525200000000000055415254315F528A
:101F5000585F54580000000055415254315F4552BB
:101F60005200000000000055415254325F52585F49
:101F700054580000000055415254325F45525200FF
:101F8000000000000055415254335F52585F5458CE
:101F90000000000055415254335F4552520000008A
:101FA00000000055415254345F52585F54580000AD
:101FB000000055415254345F455252000000000069
:101FC0000055415254355F52585F5458000000008C
:101FD00055415254355F4552520000000000004107
:101FE00044433000000000000000000000004144B5
:101FF00043310000000000000000000000434D508D
:10200000300000000000000000000000434D50318F
:102010000000000000000000000000434D503200AE
:102020000000000000000000000046544D30000099
:1020300000000000000000000046544D3100000088
:10204000000000000000000046544D320000000077
:1020500000000000000000434D540000000000009C
:102060000000000000005254430000000000000087
:1020700000000000005265736572766564383300B5
:102080000000000050495430000000000000000033
:102090000000005049543100000000000000000022
:1020A0000000504954320000000000000000000011
:1020B0000050495433000000000000000000000000
:1020C00050444230000000000000000000000055B5
:1020D0005342300000000000000000000000555393
:1020E00042444344000000000000000000454E450B
:1020F000545F313538385F54696D6572454E4554CB
:102100005F5472616E736D69740000454E45545F93
:1021100052656365697665000000454E45545F452C
:1021200072726F72000000000049325330000000EC
:10213000000000000000000053444843000000007D
:102140000000000000000044414330000000000097
:102150000000000000004441433100000000000086
:10216000000000000054534930000000000000004F
:10217000000000004D434700000000000000000088
:102180000000004C5054696D6572000000000000B2
:10219000000052657365727665643130320000006C
:1021A00000504F52544100000000000000000000A9
:1021B000504F525442000000000000000000005048
:1021C0004F52544300000000000000000000504F38
:1021D00052544400000000000000000000504F5224
:1021E00054450000000000000000000052657365C7
:1021F0007276656431303800000000526573657294
:10220000766564313039000000005265736572767E
:102210006564313130000000005265736572766587
:102220006431313100000000526573657276656477
:102230003131320000000052657365727665643199
:102240003133000000005265736572766564313188
:102250003400000000526573657276656431313573
:102260000000000052657365727665643131360096
:102270000000005265736572766564313137000085
:102280000000526573657276656431313800000074
:102290000052657365727665643131390000000063
:1022A000008003400090034000800B4000F00F408E
:1022B00040F00F4080F00F40C0F00F4000F10F40A1
:1022C000F0000A1D300018003200180160001818D4
:1022D0006400181A6E00181F780013187D00131A76
:1022E0008200131C8C000E1296000E15A0000E1812
:1022F000AA000E1BB4000E1EC8000C1CE1000B1E31
:10230000FA000A1F000109080090044000A00440E0
:1023100000B0044000C0044000D0044000A00640CB
:1023200000B0064000C0064000D0064000A00E40AD
:1023300000B00E406A6E6B6C676D4E4F34353637A9
:102340000DC1110009030CD01240173F185019039A
:102350001A783200A00A63E0ACFF650C66006700E3
:1023600029142C1E2A007E0C7F16802A814E826141
:10237000836F847B8586868E879788A489AF8AC57C
:102380008BD78CE88D204A00491347084B144C1713
:10239000460522992303A6049B009C4FAB069E1181
:1023A0009F020000F44F0000F44F0000F44F0000C3
:1023B000F44F0000F44F0000F44F0000F44F000011
:1023C000FFFFFFFFFFFFFFFFF64F0000F44F00008D
:1023D000F44F0000FFFFFFFFFFFF000002040101B8
:1023E000040FFF1F540FFF1F040FFF1F040FFF1FD9
:1023F00000000000040FFF1F00000000A00CFF1FE2
:102400008C0CFF1F00000000000000000000000016
:1024100000000000000000000000000000000000BC
:10242000000000000131000038B504000D0020005C
:1024300040B2002803D0022864D048D37DE0DFF802
:102440007C03016851F080710160280040B20028CF
:102450000BD0022815D00ED304281ED017D306287F
:1024600027D020D307282AD02FE04FF480614120C5
:1024700000F0B0F92AE04FF48061422000F0AAF9A0
:1024800024E04FF48061432000F0A4F91EE04FF4F3
:102490008061442000F09EF918E04FF4407107205D
:1024A00000F098F912E04FF48061652000F092F995
:1024B0000CE04FF48061662000F08CF906E04FF4E8
:1024C0008061672000F086F900E036E035E0DFF853
:1024D000EC02016851F000710160280040B2002850
:1024E00002D0012806D00BE04FF44071082000F024
:1024F00071F906E04FF440710D2000F06BF900E037
:102500001BE01AE0DFF8B802016851F08071016049
:10251000280040B2002802D0012806D00BE04FF47A
:1025200040710A2000F056F906E04FF440710B208C
:1025300000F050F900E000E0FFE731BD2DE9F84F71
:1025400004000D0016001F00200040B2002811D02A
:10255000200040B2012803D0200040B2022803D15D
:10256000280040B2022805DB40F28511DFF8540252
:1025700000F0A0F9290049B2200040B2FFF754FF53
:10258000DFF84402D0F800904FF47A7000FB09F9AC
:102590004846000CB0FBF6FA5FF0000B504680B2E4
:1025A00050FA0BF0012802DB1BF1010BF6E758464D
:1025B000C0B2082805DB4FF4D071DFF8080200F044
:1025C00079F9484630FA0BF0B0FBF6F0010089B219
:1025D000DFF8F82123005BB242F82310210049B252
:1025E000002903D0022917D00BD320E0010089B2C3
:1025F000491C01FB07F142F21072B1FBF2F188466F
:1026000015E0010089B2491C01FB07F142F210728A
:10261000B1FBF2F188460AE0010089B2491C01FBD6
:1026200007F142F21072B1FBF2F18846FFE7DFF8E2
:10263000A011220052B251F822202B005BB202EB13
:10264000C30223005BB251F82330AC464FFA8CFC36
:1026500003EBCC03DB6833F00403D360220052B2F7
:1026600051F822202B005BB202EBC3022823D36077
:102670005A46D2B212F0070252F0080223005BB2AF
:1026800051F823301A60020092B223005BB251F875
:1026900023309A60002223005BB251F82330DA64C1
:1026A000220052B251F822202B005BB202EBC3028F
:1026B00043469BB21361002223005BB251F8231002
:1026C0004A60BDE8F18F2DE9F04180460C0015000D
:1026D0000027404640B2002811D0404640B20128B1
:1026E00003D0404640B2022803D1200040B2022865
:1026F00005DB4FF4F371DFF8CC0000F0DBF8404667
:1027000040B2002803D0022817D00BD320E042F2B9
:102710001170854205D34FF4F671DFF8A80000F080
:10272000C9F815E042F21170854205D34FF4F871F3
:10273000DFF8900000F0BEF80AE042F21170854226
:1027400005D34FF4FA71DFF87C0000F0B3F8FFE72F
:10275000DFF87800414649B250F82100414649B2BD
:10276000002903D0022913D009D31AE0411C01FB30
:1027700005F142F21072B1FBF2F10E0011E0411CC2
:1027800001FB05F142F21072B1FBF2F10E0008E01C
:10279000411C01FB05F142F21072B1FBF2F10E0097
:1027A000FFE7DFF82C10424652B251F82210220007
:1027B00052B201EBC2010E61BDE8F0813C800440E1
:1027C00030800440DC4C0000F80EFF1FE40EFF1FB9
:1027D000200BFF1F30B42B4B1C684FF40075020018
:1027E000D2B2520995402C431C60274B0200D2B252
:1027F000521153F82240012510F01F029540C4F8F1
:10280000A0500200D2B2521153F822200300DBB2D2
:1028100013F01F0342F8231030BC704730B4194B3B
:102820001C684FF400750200D2B2520995402C4347
:102830001C60154B0200D2B2521153F82240012500
:1028400010F01F029540C4F8A05031F4E06102007E
:10285000D2B2521153F822200400E4B214F01F0443
:1028600052F8242012F4E06211430200D2B2521155
:1028700053F822200300DBB213F01F0342F82310A9
:1028800030BC704738800440880BFF1FDFF800F031
:10289000D50CFF1FDFF800F0FF0CFF1FBFF34F8FB9
:1028A00046490A6812F4E062454802430A60BFF3F1
:1028B0004F8FFEE738B504000D00002000F08EF8C1
:1028C0002A0021003F4800F0C9F8002000F0A6F8D7
:1028D0004FF47A7000F0EFF8F2E738B504000D001D
:1028E000210049B2002000F0F8F9200032BD10B5F7
:1028F0000024042000F00CFA042000F043FA002821
:1029000042D1002000F06AF8042000F03BFA0128D0
:1029100001D101200400002000F080F82A4800F0D6
:102920009DF84FF4FA7000F0C6F82000C0B20128FC
:10293000EAD1042000F026FA0028E5D1042000F0B6
:1029400021FA002806D1002000F068F8642000F089
:10295000B2F8F3E7042000F015FA012806D10020B0
:1029600000F05CF8322000F0A6F8F3E7174800F01A
:1029700075F8FFF78BFF642000F09DF80020FFF74B
:1029800089FFFFF78BFFBFE710BD10B51048046843
:10299000012000F023F8012000F040F80D4922004A
:1029A000D2B20F2042430A442100C9B20A4800F0C3
:1029B00055F84FF47A7000F07EF8ECE70CED00E08B
:1029C0000400FA057C4E0000C04F0000F84E0000E5
:1029D00004ED00E01804FF1F184E000010B50400BD
:1029E000200040B2042808DA012201211A482300FD
:1029F0005BB2C05C00F0DEF90FE0042004002000B0
:102A0000441E40B2002808D00122012112482300B0
:102A10005BB2C05C00F0CEF9F1E710BD10B5040068
:102A2000200040B2042806DA0B48210049B2405C7D
:102A300000F01BFA0DE0042004002000441E40B208
:102A4000002806D00448210049B2405C00F00DFA8D
:102A5000F3E710BD00000000BC0BFF1F0EB4C0B5B3
:102A6000024603A800210190009101AB0121044816
:102A700078440C30FDF7D0FC06BC5DF810FB00BFBD
:102A80001D25000010B50400002C13D0B4F1807F88
:102A900003D329210E48FFF70DFF0E4800210160E6
:102AA0000D490C6000210D4A11600521016001688B
:102AB000C903FCD510BD10B504002000441E002839
:102AC00004D007480068FFF7DDFFF6E710BD0000FF
:102AD000184C000010E000E014E000E018E000E016
:102AE000F00EFF1F2DE9F84304000D00200040B256
:102AF000002808D0022828D016D3042847D035D380
:102B0000052855D065E0DFF8F001016851F48061D7
:102B100001604FF440710F20FFF75CFE4FF44071ED
:102B20000E20FFF757FE54E0DFF8CC01016851F4A6
:102B3000006101604FF440714320FFF74BFE4FF4FA
:102B400040714420FFF746FE43E0DFF8AC01016826
:102B500051F4805101604FF440716320FFF73AFE59
:102B60004FF440716220FFF735FE32E0DFF8880154
:102B7000016851F4005101604FF440715020FFF79B
:102B800029FE4FF440715120FFF724FE21E0DFF8C9
:102B90006C01016851F4806101604FF440714E2076
:102BA000FFF718FE4FF440714F20FFF713FE10E0BF
:102BB000DFF84801016851F4006101604FF4407191
:102BC0008920FFF707FE4FF440718820FFF702FECF
:102BD000FFE7DFF82C61200040B256F82000C078F3
:102BE00010F0F300210049B256F82110C8702000FF
:102BF00040B256F820008078210049B256F82110E2
:102C00008870200040B2002803D0200040B2012884
:102C100006D1DFF8F00007684FF47A70474305E00B
:102C2000DFF8E40007684FF47A7047432801B7FBE8
:102C3000F0F8404680B2B0F5005F02DB41F6FF706D
:102C40008046B7FBF5F9404680B2B9EB001948461B
:102C500080B2202803DBDC212C48FFF72BFE20006C
:102C600040B256F82000007810F0E000C8F30421CC
:102C70000143220052B256F822201170210049B2BD
:102C800056F8211081F80180210049B256F8211030
:102C9000897A11F0E00119F01F020A4323005BB2A8
:102CA00056F823309A72220052B256F82220127C33
:102CB00052F0880223005BB256F823301A742200C7
:102CC00052B256F82220D27852F00C0223005BB2A6
:102CD00056F82330DA70BDE8F183094A03005BB28D
:102CE00052F823301B791B06F7D503005BB252F86C
:102CF0002320D171704700003480044028800440B4
:102D00009C0BFF1FF00EFF1FF80EFF1F9C4D0000D5
:102D100038B50400200040B208280EDA244D002205
:102D20000021200040B2285C00F044F8032120007C
:102D300040B2285CFFF772FD15E008200400200077
:102D4000441E40B200280ED0194D00220021200060
:102D500040B2285C00F02EF80321200040B2285C2D
:102D6000FFF75CFDEBE731BD10B504001048210012
:102D700049B2405C00F096F8002801D1002000E044
:102D8000012010BD10B50400200040B2FFF7ECFF99
:102D900000280AD10A20FFF78EFE200040B2FFF77C
:102DA000E3FF002801D1002000E0012010BD000059
:102DB000B40BFF1FF8B504000D0016004FF480712E
:102DC0002000C0B2FFF706FD280040B2002812D153
:102DD00044482100C9B2491150F821102200D2B252
:102DE000521150F822004269012314F01F00834061
:102DF0009A434A6138E001213A4A2000C0B24011AA
:102E000052F820002300DBB25B1152F823305B69DB
:102E100014F01F0711FA07F73B4343613000C0B2BB
:102E2000002811D12000C0B2401152F820000368E0
:102E300014F01F00814033EA01012000C0B24011AC
:102E400052F8200001600FE02000C0B2401152F89B
:102E50002000036814F01F00814019432000C0B215
:102E6000401152F820000160F1BD38B504001D4D3D
:102E70002000C0B2401155F82000406914F01F0135
:102E8000C840C00703D47B211748FFF713FD20007B
:102E9000C0B2401155F82010012214F01F008240EA
:102EA000CA6031BD38B504000E4D2000C0B24011DB
:102EB00055F82000406914F01F01C840C00703D531
:102EC0008C210948FFF7F6FC2000C0B2401155F8EC
:102ED0002000006914F01F04E04010F0010032BD32
:102EE000000000002C0BFF1F1C4D0000DFF800F05D
:102EF0001D0EFF1F10B4DFF88813020052B231F824
:102F00002210020052B2012AC0F26C81020052B2B9
:102F1000112A80F26781DFF86C23002313700B0005
:102F20009BB2312B02DA0023537077E00B009BB287
:102F3000612B02DA0123537070E00B009BB2912BDE
:102F400002DA0223537069E00B009BB2C12B02DA54
:102F50000323537062E00B009BB2F12B02DA0423CF
:102F600053705BE00B009BB240F22114A34202DAE3
:102F70000523537052E00B009BB240F25114A34260
:102F800002DA0623537049E00B009BB240F2811431
:102F9000A34202DA0723537040E00B009BB240F2D9
:102FA000B114A34202DA0823537037E00B009BB23E
:102FB00040F2E114A34202DA092353702EE00B0021
:102FC0009BB240F21124A34202DA0A23537025E097
:102FD0000B009BB240F24124A34202DA0B23537050
:102FE0001CE00B009BB240F27124A34202DA0C23D6
:102FF000537013E00B009BB240F2A124A34202DA0B
:103000000D2353700AE00B009BB240F2D124A3427F
:1030100002DA0E23537001E00F2353700B009BB2B2
:103020001A2B02DA002393706AE00B009BB2332B59
:1030300002DA0123937063E00B009BB24C2B02DA9F
:10304000022393705CE00B009BB2652B02DA032332
:10305000937055E00B009BB27E2B02DA0423937031
:103060004EE00B009BB2972B02DA0523937047E0EA
:103070000B009BB2B02B02DA0623937040E00B00EA
:103080009BB2C92B02DA0723937039E00B009BB285
:10309000E22B02DA0823937032E00B009BB2FB2B89
:1030A00002DA092393702BE00B009BB2B3F58A7F01
:1030B00002DA0A23937023E00B009BB240F22D1436
:1030C000A34202DA0B2393701AE00B009BB2B3F514
:1030D000A37F02DA0C23937012E00B009BB240F244
:1030E0005F14A34202DA0D23937009E00B009BB238
:1030F000B3F5BC7F02DA0E23937001E00F239370C7
:103100000B009BB21A2B02DA0023D3706AE00B008B
:103110009BB2332B02DA0123D37063E00B009BB226
:103120004C2B02DA0223D3705CE00B009BB2652BC0
:1031300002DA0323D37055E00B009BB27E2B02DA38
:103140000423D3704EE00B009BB2972B02DA0523C9
:10315000D37047E00B009BB2B02B02DA0623D3708A
:1031600040E00B009BB2C92B02DA0723D37039E091
:103170000B009BB2E22B02DA0823D37032E00B0083
:103180009BB2FB2B02DA0923D3702BE00B009BB21E
:10319000B3F58A7F02DA0A23D37023E00B009BB2D7
:1031A00040F22D14A34202DA0B23D3701AE00B0075
:1031B0009BB2B3F5A37F02DA0C23D37012E00B00AD
:1031C0009BB240F25F14A34202DA0D23D37009E0F0
:1031D0000B009BB2B3F5BC7F02DA0E23D37001E083
:1031E0000F23D37010BC704770B50400200040B2AC
:1031F000FFF780FE2448017811F0FD01017001788D
:1032000051F010010170214DB8202870204E307807
:10321000C006FBD43078C0F381000228FAD11948E7
:10322000C378827841780078FFF760FE1448210067
:1032300049B200EB8101897811F01F01154A117024
:10324000210049B200EB8101C97811F01F0151F052
:103250004001114A117031788906FCD53178490650
:10326000FCD5297811F03F0129703178C1F3810133
:103270000329FAD164B230F82400C0B270BD000056
:10328000400BFF1F840BFF1F01400640004006401B
:1032900006400640044006400540064001B4BDF823
:1032A0000000002805D0BDF80000401EADF8000069
:1032B000F5E701B0704780B5012201211A20FFF720
:1032C00079FD012201211920FFF774FD23211A2025
:1032D000FFF7A4FA23211920FFF7A0FA01BDF8B5E2
:1032E000704C01202060704E012030604FF4C87097
:1032F000FFF7D4FF6D4D002028606D4F386800281F
:1033000003D101202860002011E001202860002066
:1033100020604FF4C870FFF7C1FF002030603868AC
:10332000002803D001202860002000E00120F2BD29
:1033300038B55D4C002020605A4D002028604FF4C5
:10334000C870FFF7ABFF012020604FF4C870FFF793
:10335000A5FF012028604FF4C870FFF79FFF31BD23
:1033600010B5514C002020604FF4C870FFF796FF55
:1033700000204C4908604FF4C870FFF78FFF012010
:1033800020604FF4C870FFF789FF002020604FF4E1
:10339000C870FFF783FF10BD10B5434C00202060BC
:1033A0004FF4C870FFF77AFF01203E4908604FF4E0
:1033B000C870FFF773FF012020604FF4C870FFF75B
:1033C0006DFF002020604FF4C870FFF767FF10BD4D
:1033D00038B5354C00202060344D002028604FF473
:1033E000C870FFF75BFF012020604FF4C870FFF743
:1033F00055FF2F480068002805D0012028600020D4
:103400002060002004E001202860002020600120CE
:1034100032BD70B5040008252800451EC0B2002842
:1034200017D0200603D501201E49086002E00020C5
:103430001C49086064004FF4C870FFF72FFF1A4E54
:10344000012030604FF4C870FFF728FF0020306083
:10345000E2E770BDF8B508250026144C0020206076
:103460002800451EC0B2002814D076000E4F002060
:1034700038604FF4C870FFF711FF012038604FF437
:10348000C870FFF70BFF0A4800680028E8D056F024
:103490000106E5E701202060002003490860F6B23C
:1034A0003000F2BD6400FE436800FE43E402FE43C8
:1034B0006402FE4370B504000D0000262900C9B265
:1034C000200080B200F00BF8002806D1761C3000F6
:1034D000C0B21428F2D1002000E0012070BD38B540
:1034E00004000D00FFF7FBFE002801D1002019E0C9
:1034F0004220FFF78EFFFFF76BFF002803D1FFF795
:1035000017FF00200EE02000C0B2FFF782FFFFF798
:103510005FFF2800C0B2FFF77CFFFFF759FFFFF7FE
:1035200007FF012032BDF8B504000D00160000278A
:103530003200D2B2290089B2200000F00BF8002836
:1035400006D17F1C3800C0B21E28F1D1002000E057
:103550000120F2BD70B504000D001600FFF7BFFE9C
:10356000002801D1002039E04220FFF752FFFFF789
:103570002FFF002803D1FFF7DBFE00202EE03000F4
:10358000C0B2FFF746FFFFF723FFFFF7D1FEFFF7BB
:10359000A6FE002801D1002020E04320FFF739FFDC
:1035A000FFF716FF002803D1FFF7C2FE002015E049
:1035B000280080B200280ED0FFF74CFF20702800B2
:1035C00080B2012802D1FFF7E7FE01E0FFF7C8FE55
:1035D000641C6D1EECE7FFF7ABFE012070BD000020
:1035E000012210F01F018A40A04903005BB25B0971
:1035F00041F82320704700B5ADF5A85D95B09C4813
:10360000016805204143002000F06CF90FF29101A0
:10361000542000F0B6F94420FFF7E2FF954B00225A
:103620009549964800F0C4F9292000F0FDF92820BA
:1036300000F0FAF900F052FB00F07EFB4FF47A70D4
:1036400000F09AFB4FF47A7000F0B6FB0FF2FD1118
:10365000672000F096F90FF28521102000F091F913
:1036600041F2FC20684400F0E1FB00F03CFC4FF428
:10367000167241F2FC2169440FA800F0CDFC6946A6
:103680000FA800F015FD69460FA800F02CFD694653
:103690000FA800F00DFD7A49684600F05EFDE4E7F2
:1036A0002DE9FE4F774C2100754800F061FD764D05
:1036B0000021292000F0B9FA2860744F0021282049
:1036C00000F0B3FA3860724E38682968401A00F08A
:1036D00093FD804638682968081800F08DFD0100C8
:1036E000404600F09BFD3060DFF8A8A1606800F064
:1036F00013FE5FF06632684BFDF74EFE04000D00CE
:10370000306800F009FE654A654BFDF745FE220072
:103710002B00FEF779F900F023FECAF80000574CA1
:103720000020A061DAF800006061200000F052F98A
:10373000E0695C4900F048FE83465846002100F0ED
:10374000B5FE01D2002083465846574900F0C0FE1E
:1037500001D856488346584600F0CCFE00F0C7FA20
:10376000DAF80000524900F0A1FE02D2514C009458
:1037700055E0DAF8000000F0CFFD31F00041020022
:103780000B005FF00008DFF8309100264B4F00245B
:103790004B4D30003900FDF7FFFD02000B0020000B
:1037A0002900FEF7B5F8CDE90001DAF8000000F0D5
:1037B000B3FD31F0004142464B46FDF7EDFDDDE93A
:1037C0000023FEF721F900F0CBFD0090DAF80000AD
:1037D00000F0A2FD31F0004132003B00FDF7DCFDBE
:1037E00002000B0020002900FEF792F804000D00F3
:1037F000DAF8000000F090FD31F0004142464B46FF
:10380000FDF7CAFD02000B0020002900FEF780F83A
:103810002C4A2D4BFDF7C0FD00F0A2FD04000098DE
:1038200000F068FE00F0A8FA200000F063FE00F04F
:10383000C3FA002025490860002025490860254872
:10384000016851F001010160BDE8F78F38B5002033
:1038500021490D685FF0FF320A601D242900E14014
:10386000C90701D500F016FB31BD000000E100E002
:10387000F80EFF1F00B0014600A00C46640EFF1FAB
:10388000A00EFF1F880EFF1F940EFF1F900EFF1F3C
:10389000980EFF1F9C0EFF1F6666E63F9A99999946
:1038A0009999A93F00409C4501401C4600401C4698
:1038B000CDCC4C3D0000FA450088B340007CC540AB
:1038C0000040BF4052B81E85EB51F03FDC0EFF1F99
:1038D000E00EFF1F0C710340A090044080B500F083
:1038E000F9FA01BD38B505000C00002C03D12221E6
:1038F0001748FEF7DFFF1748016851F40001016027
:103900000020154908601548611E2A0052B21201B4
:103910008150290049B209010144C96851F00101EF
:103920002A0052B212010244D160290049B20901B1
:1039300001448968490849002A0052B21201024430
:10394000916003212A0052B212011044816031BDFE
:103950005C4D00003C800440007003400071034057
:1039600010B504004FF4007094FBF0F100FB11401F
:10397000002803D01E210B48FEF79CFF0A48046074
:1039800010BD70B504000D00084E07480068B04235
:1039900003D030210348FEF78DFF200040B246F8E7
:1039A000205070BDDC4D000008ED00E00000FF1F5E
:1039B00010B40160426083600024C460002404618C
:1039C0000024C46100240462002444610024846152
:1039D00010BC704770B504006069A16900F0A0FDDB
:1039E00005002068290000F0DBFD0100A06900F05F
:1039F00097FD06006168206A00F0D2FD310000F0FA
:103A0000E3FC06002800E16800F08AFDA16800F0F0
:103A1000C7FD310000F0D8FCE061206A290000F009
:103A2000D3FC2062E56070BD38B5040025006DB29E
:103A30006D112800C0B2002802D001280DD019E075
:103A4000A148016851F000610160A048016831F0AF
:103A5000900101600168016010E09D48016851F02B
:103A6000006101609948016831F41041016001680A
:103A7000016003E033219748FEF71CFF200040B2AD
:103A8000002800F08980012800F08680032800F0DB
:103A9000838008284ED0092851D00A2854D00B28FA
:103AA00057D00C285AD00D285DD00E2860D00F2892
:103AB00063D0102870D0112864D0122867D0132842
:103AC0006AD0142868D01A2866D01D2864D01E2811
:103AD00062D0202861D021285FD023285DD02428FF
:103AE0005CD025285FD0262862D0272865D02828DA
:103AF00068D029286BD02A286ED02B2871D02C288A
:103B000074D02D2877D02E287AD02F287DD0302839
:103B100000F0858031287DD0322800F08080332865
:103B20007DD034287BD03A2879D03D2877D03E28E4
:103B300075D075E000212020FEF74CFE74E00021D6
:103B40002120FEF747FE6FE000210720FEF742FE2E
:103B50006AE000210820FEF73DFE65E000212220FA
:103B6000FEF738FE60E000212320FEF733FE5BE025
:103B700000214020FEF72EFE56E000214120FEF7F6
:103B800029FE51E000219820FEF724FE4CE00021A0
:103B90009920FEF71FFE47E046E045E00021802027
:103BA000FEF718FE40E000218120FEF713FE3BE007
:103BB00000218220FEF70EFE36E000218320FEF772
:103BC00009FE31E000212020FEF704FE2CE0002158
:103BD0002120FEF7FFFD27E000212420FEF7FAFD5B
:103BE00022E000212520FEF7F5FD1DE00021262022
:103BF000FEF7F0FD18E000212720FEF7EBFD13E0B3
:103C000000212A20FEF7E6FD0EE000212B20FEF722
:103C1000E1FD09E000211120FEF7DCFD04E003E0F6
:103C20009A212C48FEF746FE31BDF8B504000D0080
:103C3000260076B276110027290049B2200040B252
:103C400000F01BF82449300040B251F82000006811
:103C50000006F7D5300040B251F82000006932006C
:103C600052B251F82220126832F0800233005BB267
:103C700051F823100A6080B2F2BD70B4020052B253
:103C8000521110F01F03144C0D006DB2AD0015F071
:103C90000C0555F05005160076B254F82660B56054
:103CA0000425160076B254F82660F5601D00EDB2CA
:103CB00015F01F0555F04005160076B254F8264061
:103CC000256070BC704700003C80044018800440B0
:103CD000308004405C4C00001004FF1F80B540F2AF
:103CE0001453642200210120FEF728FC01BD38B5E1
:103CF0000400002C01D50020040042F2117084421F
:103D000002D342F210700400200000F075FA084956
:103D100000F046FC0100074800F002FC0500280006
:103D200000F0E8FB020000210120FEF7CCFC31BDD1
:103D3000022B073D0080B64410B544F638244FF4FA
:103D4000FA63220000210020FEF7F8FB4FF4FA632B
:103D5000220003210020FEF7F1FB4FF4FA6322005A
:103D600001210020FEF7EAFB4FF4FA632200022152
:103D70000020FEF7E3FB10BD38B5040042F21170DD
:103D8000844202D342F210700400002C01D50020BE
:103D90000400200000F030FA174900F001FC174938
:103DA00000F012FB0500280000F0A4FB0200012136
:103DB0000020FEF788FC31BD38B5040042F21170D6
:103DC000844202D342F210700400002C01D500207E
:103DD0000400200000F010FA074900F0E1FB074959
:103DE00000F0F2FA0500280000F084FB0200022136
:103DF0000020FEF768FC31BD9A99193F0000FA4493
:103E0000012210F01F018A40704903005BB25B0978
:103E100041F823207047012210F01F018A406C49AD
:103E200003005BB25B0941F82320704710B5040022
:103E30006848046000F072F80028FBD000F002F837
:103E4000002010BDE0B5012002904FF416700190E3
:103E5000002000901B235F4802685F49002000F0AB
:103E600039FC5E4801684908490001605720FFF7A6
:103E7000D2FF5B48016851F0010101600020FFF7AB
:103E8000BFFF58491B20FEF7A5FC57491D20FEF730
:103E9000A1FC07BD10B5554C94F90000042813D1BE
:103EA000032020705720FFF7B6FF51485FF00061F4
:103EB00001604A4A136853F00103136001604548EA
:103EC00000684C49086004E05720FFF7A4FF022077
:103ED000207010BD0120454908704148016851F02B
:103EE00001010160704770B5404C04202070404DC6
:103EF0005FF0FF362E605720FFF782FF94F9000035
:103F000001280AD094F900000228F7D1042020707B
:103F10002E605720FFF774FFF0E770BD7CB50026D8
:103F200000208DF80000FFF7C6F980211220FFF76E
:103F3000C1FA002804D13048FEF790FD002043E08C
:103F40003220FEF7B8FD0B2201216846FFF7EBFA9D
:103F5000002804D12948FEF781FD002034E09DF8B7
:103F600000102748FEF77AFD264C21782648FEF7F8
:103F700075FD9DF80000212825D100252800217815
:103F800080B289B2884219D2204E280080B206EB56
:103F900040004178280080B216F8100080B2FFF788
:103FA00089FA002808D1280080B216F810101848A5
:103FB000FEF754FD002007E06D1CDFE71548FEF713
:103FC0004DFD012000E0002076BD000000E100E092
:103FD00080E100E0FC0EFF1F52F00F400C8000401B
:103FE000248000400201020012010900A40CFF1FFE
:103FF000A0900440109000406C4F0000D44F00008F
:10400000A04E0000A50CFF1F184F0000C00BFF1FA3
:10401000844F0000C44E0000F8B403002348008819
:10402000ADF800001E000D001000421E00283BD01D
:10403000287804006D1C68462700FFB2FF11C75D99
:104040003770761C2700FFB2C7F38017C75D377043
:10405000761C2700FFB2C7F34017C75D3770761C88
:104060002700FFB2C7F30017C75D3770761C270023
:10407000FFB2C7F3C007C75D3770761C2700FFB2D9
:10408000C7F38007C75D3770761C2700FFB2C7F300
:104090004007C75D3770761C2700FFB217F0010795
:1040A000C05D3070761CBFE7F1BC70479610000011
:1040B000F0B4020000253C2D13DA00263300002660
:1040C00034000026502E06DA975DFF2F01D15B1CCD
:1040D0003419761CF6E794FBF3F64E5550326D1CFE
:1040E000E9E7F0BC7047F0B402000B0000250020A7
:1040F00000243C2C2FDA195D491E0800195D491C6B
:104100000D00002807D0502101FB0401515C00295B
:1041100001D0401EF5E7502D07DA502101FB045174
:10412000515C002901D06D1CF5E70021814206DABF
:104130000026502707FB0417D655491CF6E74F21E8
:104140008D4206DA0026502707FB0417D655491E74
:10415000F6E7641CCDE7F0BC704700223C2A06DA83
:104160005342034493F83B308B54521CF6E770479C
:104170002DE9F04104000D0000260027052F18DA74
:1041800004EB0700C07A04EB0701097C401A00F039
:1041900033F8174900F042F880463000414600F0FD
:1041A00013F906003000124900F038F828607F1C2F
:1041B000E4E700270F2F18DA04EB0700407D04EB3B
:1041C0000701897E401A00F017F8094900F026F827
:1041D00080463000414600F0F7F8060030000549FF
:1041E00000F01CF868607F1CE4E7BDE8F081000087
:1041F0000000A04000007041C2175040801AB0FA81
:1042000080F10AD08840D1F19D01D20742EAC15124
:10421000020672F1004241EB1020704710B5FF23F7
:1042200013EAD0541DBF13EAD1529C429A4239E09E
:10423000A41ADA0780EA0103134042EA012142EAA4
:104240000020421A3CBF641E01EB4202090AB2FB85
:10425000F1FE01FB1E221202B2FBF1F001FB102263
:104260006EF30F201202B2FBF1FE4EEA00207F3403
:1042700006DDFE2C24DA53EA500050EBC45010BD8A
:10428000D4F1020401FB1E2240F08071192C1DDCC8
:1042900021FA04F0C4F12004A140114371F100425D
:1042A000584110BD9C421ABF03EAD1529A420FE016
:1042B00080EA010E0EF00043400004D0490016D100
:1042C00043F0FF4010BD490008BFD343180010BDA4
:1042D0009C4205D1D21AF7D001F00041484010BDF0
:1042E0004A0212BF0846484000F0004010BD4AB9DB
:1042F0000902B1FA81F2914044B1A418C00140F022
:1043000000409EE7C90141F0004152420002B0FA6C
:1043100080F4A040141B94E7C0F3C75181B1FF297A
:1043200006D0C110400721F0E04101F16051704713
:1043300041020CBF40F4E0016FF0004100207047E3
:1043400000F0004100020AD0B0FA80FC00FA0CF044
:1043500001F16051A1EB0C5101EBD02140057047F8
:1043600001F000428B1AA3F16051B1F5801F0ADB06
:10437000B1F17F6F1FD242EAC102C10071F1004169
:1043800042EB507070470B15C3F10903212B10D27B
:10439000890241EA905180020128494141F00041DF
:1043A00021FA03F0C3F12003994071F1004150411B
:1043B0007047100070476FF0000013EB103F5CBFB8
:1043C000000E42EAC050704790EA010F40F1AE8003
:1043D00081F00041431A4FF000423EBF5340C01AE3
:1043E000C91800BFD3095FEAD05C13EB400F34BF9C
:1043F000B3EB410F40E07CEBD1530CD342EA0121F7
:1044000022D8D1EB402009D3400A28BF5FEA5001EF
:1044100040EBCC507047401A15D04002B0FA80F201
:10442000521C9040400A4FEA3C23B3EB026384BF26
:1044300000EB730007E040F400001A16DB07C2F13E
:104440000102D04018437047182BFCDC31FA03F20C
:1044500002FA03F3591A38BF42F00102D2EB4020AE
:104460003CBF4000ACF1010C5FEACC5CC20572F1CC
:1044700000414CEB5020704713EB400F0FD2C94264
:1044800009D0ACEBD153022B03DB4902172BDDDD46
:1044900070479143401AC042D5D10020704713EBBA
:1044A000410FD0D36FF00000704700004FF0807CC8
:1044B0001CEB400F94BF1CEB410F05E040EA010CE0
:1044C0001CEB0C0F01D28842704718BF8142704725
:1044D0004FF0807C1CEB400F94BF1CEB410F05E0BC
:1044E00040EA010C1CEB0C0F01D28142704718BF4F
:1044F00088427047C0F3C7517E390EDDC217D1F133
:10450000200106DD000240F00040C8401044504049
:104510007047D04380F00040704700207047000093
:1045200090EA010F7FF556AF81F00041421A3CBF7F
:10453000801A89184FF0004CC0F3C752FF2A24D0CC
:10454000C1F3C75313B3D21AD2F1190327DD4CEAD2
:1045500001214CFA03F321EA0303D140C20D4CEAD6
:104560000020401834BF20EA0C004CEA5000D2056D
:1045700053EA006373EB0C0C52EB1020420012F173
:10458000807F38BF7047C00DC0057047490212BF19
:104590009A4200EB5120F8E7D2F11703D9D57047C2
:1045A000FF2212EAD05C1DBF12EAD1539445934218
:1045B0002BE09C44D30780EA01021A4043EA002022
:1045C00043EA0121A1FB0030C04238BF40007CF12A
:1045D0007F010BDBFE294ADA5B0842EAC15153EA4C
:1045E000006373F1004C51EB10207047D1F1080CBF
:1045F000DCF120012FDB5B0810FA01F10B4320FAFC
:104600000CF073F100415041704794451CBF02EA21
:10461000D153934280EA010202F000421DD04000D3
:1046200019D0490017D05BB9634514D00902B1FA1B
:1046300081F39940BCEB030CC00140F00040C1E79E
:104640000002B0FA80FC10FA0CF0B3EB0C0CC901BC
:1046500041F00041B6E71000704740000AD0490021
:1046600008D010F1807F94BF11F1807F02E042F00A
:10467000FF407047D04370472DE9F84304000D0018
:104680002000800910F00700C0B246012000103859
:1046900010F03F00C0B2C70017EB0608EDB218EBF0
:1046A000C500B0F1010948464146C0B2C9B28842CE
:1046B0000ED3002200214046C0B2FEF77BFB4FF430
:1046C00081714046C0B2FEF785F818F10108EAE7AB
:1046D000BDE8F1832DE9F84F04000D0016001F001E
:1046E0009DF92880DDF82C90DDF830A0404640B2DE
:1046F000002802D15FF0010B0FE0404640B20128D4
:1047000002D15FF0020B08E0404640B2022802D11D
:104710005FF0040B01E05FF0100B404640B2002850
:1047200005D15A48854202D35948A8421FD2404673
:1047300040B2012809D15548854206D35548A842C0
:1047400003D315F00300032811D1404640B20228DC
:1047500009D14E48854206D34F48A84203D315F0ED
:104760000300002803D061214C48FEF7A3F8B9F5F7
:10477000004F03D363214948FEF79CF8484801687D
:1047800051F0020101604748016851F002010160E7
:104790004548210049B249014550210049B249012B
:1047A00001440E610021220052B252010244918064
:1047B0005946C9B2220052B2520102449182414686
:1047C00049B2090211F4E061424652B212F0070206
:1047D0001143220052B252010244D1804946490499
:1047E000490C220052B252010244D1824946490486
:1047F000490C220052B252010244D1832B490A686B
:1048000032F080020A605946C9B2220052B2520107
:10481000024491600021220052B252010244D16050
:104820005FEACA7102D4D9F1000100E00021220040
:1048300052B25201024491614CF20A01220052B27A
:104840005201104481833800C0B24009313050F029
:1048500080001749220052B2885416493800C0B26D
:10486000FDF7B8FF5946C9B22800FFF705FF124906
:1048700001220B6812FA04F083430B600F480168B1
:10488000A2400A430260BDE8F18F000010F00F4023
:1048900013F10F4012F10F4010F10F409C4C00003B
:1048A000408004403C800440009000400080004074
:1048B00000100240000101000C80004024800040F4
:1048C000DFF800F0B5280000DFF800F0B72A00009C
:1048D0004C48F021017001780906FCD5007810F0F1
:1048E000710F01D0002000E00120704780B54648DC
:1048F000016851F4002101604448016851F400212D
:104900000160404801780906FBD5F02101700A20BA
:10491000FFF7DAFF01BD1CB50400210089B24FF496
:104920000060414300910920394908709DF8020058
:10493000384908709DF80100374908709DF800005B
:1049400036490870FFF7C4FF002801D100200DE0B0
:10495000200080B2002808D17FF0010240F20C4113
:10496000200080B200F003F800E0012016BD7CB505
:1049700006000C001500310089B24FF4006041437D
:1049800011FA84F00190200080B2042190FBF1F232
:1049900001FB1200002803D0EA212148FFF790FF15
:1049A000200080B240F60101884203DBEC211C4864
:1049B000FFF786FF9DF80600164908709DF8050070
:1049C000154908709DF804001449087000959DF879
:1049D0000300144908709DF80200134908709DF8FF
:1049E0000100124908709DF8000011490870062066
:1049F00007490870FFF76CFF002801D1002000E094
:104A0000012076BD0000024004F0014008F00140A2
:104A10000700024006000240050002400400024078
:104A2000D44B00000B0002400A0002400900024083
:104A300008000240F0B40F4E3468356855F47F0525
:104A400035600D0615F0706555EA0075170517F409
:104A500070073D431F0417F470273D43064F3D6028
:104A600000252F00FFB29F4201D26D1CF9E7346090
:104A7000F0BC704700F001404480044080B500F075
:104A800089F800F028F800F00AF8FDF730FF01225D
:104A900001210420FEF78EF9FEF7ADFDFEE710B50B
:104AA0002E4C0320FEF7A0FB20602D4922684FF416
:104AB0007A7042430A6008682A490968C1F30361B1
:104AC000491CB0FBF1F0284908605FF4E131002097
:104AD000FEF708F810BD2DE9F0412449244888422A
:104AE0000AD000221400B4F5826F05D251F82420B8
:104AF00040F82420641CF6E7FEF732FF1D4B1E4AE7
:104B00001E498E1A3000461E002804D010781870F6
:104B1000521C5B1CF6E71A4D1A4C671B3800471EE7
:104B2000002803D0002028706D1CF7E7DFF858C07C
:104B3000DFF858E0DFF85880B8EB0E063000461E6C
:104B4000002808D09EF800008CF800001EF1010E2D
:104B50001CF1010CF2E7BDE8F0810000F40EFF1F2C
:104B6000F00EFF1F44800440F80EFF1F00000000FD
:104B70000000FF1F1004FF1F901B000028240000EE
:104B8000640EFF1F540FFF1FA80CFF1FC04800003A
:104B90007C4A000080B500F007F80C490A884FF6FF
:104BA000FE7002400A8001BDEFF3118072B6084921
:104BB0004CF220520A804DF628120A800100C9B238
:104BC000002900D162B670470000000000200540B7
:104BD0000E200540433A5C55736572735C36353779
:104BE00036375C4465736B746F705C736D6172749F
:104BF0006361725C6D795F70726F6A2832295C4301
:104C00006869705C7372635C4D4B36305F666C61D3
:104C100073682E6300000000433A5C55736572733D
:104C20005C36353736375C4465736B746F705C7314
:104C30006D6172746361725C6D795F70726F6A2806
:104C400032295C436869705C7372635C4D4B36302B
:104C50005F5379735469636B2E630000433A5C556C
:104C6000736572735C36353736375C4465736B74C5
:104C70006F705C736D6172746361725C6D795F708B
:104C8000726F6A2832295C436869705C7372635C76
:104C90004D4B36305F6164632E630000433A5C55D0
:104CA000736572735C36353736375C4465736B7485
:104CB0006F705C736D6172746361725C6D795F704B
:104CC000726F6A2832295C436869705C7372635C36
:104CD0004D4B36305F646D612E630000433A5C5586
:104CE000736572735C36353736375C4465736B7445
:104CF0006F705C736D6172746361725C6D795F700B
:104D0000726F6A2832295C436869705C7372635CF5
:104D10004D4B36305F66746D2E630000433A5C5530
:104D2000736572735C36353736375C4465736B7404
:104D30006F705C736D6172746361725C6D795F70CA
:104D4000726F6A2832295C436869705C7372635CB5
:104D50004D4B36305F6770696F2E6300433A5C5588
:104D6000736572735C36353736375C4465736B74C4
:104D70006F705C736D6172746361725C6D795F708A
:104D8000726F6A2832295C436869705C7372635C75
:104D90004D4B36305F5049542E630000433A5C550A
:104DA000736572735C36353736375C4465736B7484
:104DB0006F705C736D6172746361725C6D795F704A
:104DC000726F6A2832295C436869705C7372635C35
:104DD0004D4B36305F756172742E6300433A5C55FB
:104DE000736572735C36353736375C4465736B7444
:104DF0006F705C736D6172746361725C6D795F700A
:104E0000726F6A2832295C436869705C7372635CF4
:104E10006D6973632E6300000A2A2A2A2A64656674
:104E200061756C745F69737220656E746572656418
:104E3000206F6E20766563746F722025642A2A2A9B
:104E40002A2A0A0A257320496E7465727275707475
:104E50000000000010B5074979441831064C7C4425
:104E6000163404E00A68081D114488470146A1422F
:104E7000F8D110BD7400000080000000417373651C
:104E80007274696F6E206661696C656420696E205A
:104E90002573206174206C696E652025640A00000A
:104EA0000A4765742049442073756363657373A36F
:104EB000AC53454E534F52204944206973203078FB
:104EC000257800000A4F563737323520526567691A
:104ED0007374657220436F6E6669672053756363F0
:104EE00065737321000000005FC1FFFFF000000048
:104EF000640EFF1F000000000ABDF8D0D0BDE2CB59
:104F0000F8B2D9D7F7A3ACC7EBD6D8D0C2CBA2C8DA
:104F1000EBB9CCBCFE0000000A436F6E66696720E7
:104F20005265676973746572204E756D6265722093
:104F3000697320256420000000F00DF8002801D0DE
:104F4000FFF788FFAFF300800020AFF30080FEF78B
:104F500052FB00F002F80120704700F001B8000099
:104F600007463846FCF70EFEFBE700000ABEAFB866
:104F7000E63A53434342D0B4CAFDBEDDB4EDCEF3AE
:104F8000000000000ABEAFB8E63AD0B4BCC4B4E634
:104F9000C6F730782578CAA7B0DC000038B50446DB
:104FA0000D46284600F006F8A84218BF0024204607
:104FB00032BD00000149FDF790BC00BF5C0CFF1F33
:104FC0000ABDF8C8EBCBC0D1ADBBB7B5C8B4FDA323
:104FD000A10000000ABEAFB8E63AB6C1C8A1494474
:104FE000CAA7B0DC00000000AFF30080AFF3008080
:084FF000FFF7A2FF00002E00F4
:0400000500004FE9BF
:00000001FF
